:020000040000fa
:080000000002040000000000f2
:020000040000fa
:040008008003000071
:020000040000fa
:04000c00800300006d
:020000040000fa
:040010008003000069
:020000040000fa
:040014008003000065
:020000040000fa
:040018008003000061
:020000040000fa
:04001c00800300005d
:020000040000fa
:040020008003000059
:020000040000fa
:040024008003000055
:020000040000fa
:040028008003000051
:020000040000fa
:04002c00800300004d
:020000040000fa
:040030008003000049
:020000040000fa
:04003400fa020000cc
:020000040000fa
:040038008003000041
:020000040000fa
:04003c00800300003d
:020000040000fa
:040040008003000039
:020000040000fa
:040044008003000035
:020000040000fa
:040048005003000061
:020000040000fa
:04004c00800300002d
:020000040000fa
:040050008003000029
:020000040000fa
:040054008003000025
:020000040000fa
:040058008003000021
:020000040000fa
:04005c005a03000043
:020000040000fa
:040060008003000019
:020000040000fa
:040064008003000015
:020000040000fa
:040068008003000011
:020000040000fa
:04006c00800300000d
:020000040000fa
:040070008003000009
:020000040000fa
:040074008003000005
:020000040000fa
:040078008003000001
:020000040000fa
:04007c0080030000fd
:020000040000fa
:0400800080030000f9
:020000040000fa
:0400840080030000f5
:020000040000fa
:0400880080030000f1
:020000040000fa
:04008c0080030000ed
:020000040000fa
:0400900080030000e9
:020000040000fa
:040094001c03000049
:020000040000fa
:0400980080030000e1
:020000040000fa
:04009c0080030000dd
:020000040000fa
:0400a00080030000d9
:020000040000fa
:0400a40080030000d5
:020000040000fa
:0400a80080030000d1
:020000040000fa
:0400ac0080030000cd
:020000040000fa
:0400b00080030000c9
:020000040000fa
:0400b40080030000c5
:020000040000fa
:0400b80080030000c1
:020000040000fa
:0400bc0080030000bd
:020000040000fa
:0400c00080030000b9
:020000040000fa
:0400c40080030000b5
:020000040000fa
:0400c80080030000b1
:020000040000fa
:0400cc0080030000ad
:020000040000fa
:0400d00080030000a9
:020000040000fa
:0400d40080030000a5
:020000040000fa
:0400d80080030000a1
:020000040000fa
:0400dc00800300009d
:020000040000fa
:0400e0008003000099
:020000040000fa
:0400e4008003000095
:020000040000fa
:0400e8008003000091
:020000040000fa
:0400ec00800300008d
:020000040000fa
:0400f0008003000089
:020000040000fa
:0400f4008003000085
:020000040000fa
:0400f8008003000081
:020000040000fa
:0400fc00800300007d
:020000040000fa
:040100008003000078
:020000040000fa
:040104008003000074
:020000040000fa
:040108008003000070
:020000040000fa
:04010c00800300006c
:020000040000fa
:040110008003000068
:020000040000fa
:040114008003000064
:020000040000fa
:040118008003000060
:020000040000fa
:04011c00800300005c
:020000040000fa
:040120008003000058
:020000040000fa
:040124008003000054
:020000040000fa
:040128008003000050
:020000040000fa
:04012c00800300004c
:020000040000fa
:040130008003000048
:020000040000fa
:040134008003000044
:020000040000fa
:040138008003000040
:020000040000fa
:04013c00800300003c
:020000040000fa
:040140008003000038
:020000040000fa
:040144008003000034
:020000040000fa
:040148008003000030
:020000040000fa
:04014c00800300002c
:020000040000fa
:040150008003000028
:020000040000fa
:040154008003000024
:020000040000fa
:040158008003000020
:020000040000fa
:04015c00800300001c
:020000040000fa
:040160008003000018
:020000040000fa
:040164008003000014
:020000040000fa
:040168008003000010
:020000040000fa
:04016c00800300000c
:020000040000fa
:040170008003000008
:020000040000fa
:040174008003000004
:020000040000fa
:040178008003000000
:020000040000fa
:04017c0080030000fc
:020000040000fa
:0401800080030000f8
:020000040000fa
:0401840080030000f4
:020000040000fa
:0401880080030000f0
:020000040000fa
:04018c0080030000ec
:020000040000fa
:0401900080030000e8
:020000040000fa
:0401940080030000e4
:020000040000fa
:0401980080030000e0
:020000040000fa
:04019c0080030000dc
:020000040000fa
:0401a00080030000d8
:020000040000fa
:0401a40080030000d4
:020000040000fa
:0401a80080030000d0
:020000040000fa
:0401ac0080030000cc
:020000040000fa
:0401b00080030000c8
:020000040000fa
:0401b40080030000c4
:020000040000fa
:0401b80080030000c0
:020000040000fa
:0401bc0080030000bc
:020000040000fa
:0401c00080030000b8
:020000040000fa
:0401c40080030000b4
:020000040000fa
:0401c80080030000b0
:020000040000fa
:0401cc0080030000ac
:020000040000fa
:0401d00080030000a8
:020000040000fa
:0401d40080030000a4
:020000040000fa
:0401d80080030000a0
:020000040000fa
:0401dc00800300009c
:020000040000fa
:0401e0008003000098
:020000040000fa
:0401e4008003000094
:020000040000fa
:0401e8008003000090
:020000040000fa
:0401ec00800300008c
:020000040000fa
:0401f0008003000088
:020000040000fa
:0401f4008003000084
:020000040000fa
:0401f8008003000080
:020000040000fa
:0401fc00800300007c
:020000040000fa
:040200008003000077
:020000040000fa
:040204008003000073
:020000040000fa
:04020800800300006f
:020000040000fa
:04020c00800300006b
:020000040000fa
:040210008003000067
:020000040000fa
:040214008003000063
:020000040000fa
:04021800800300005f
:020000040000fa
:04021c00800300005b
:020000040000fa
:040220008003000057
:020000040000fa
:040224008003000053
:020000040000fa
:04022800800300004f
:020000040000fa
:04022c00800300004b
:020000040000fa
:040230008003000047
:020000040000fa
:040234008003000043
:020000040000fa
:04023800800300003f
:020000040000fa
:04023c00800300003b
:020000040000fa
:040240008003000037
:020000040000fa
:040244008003000033
:020000040000fa
:04024800800300002f
:020000040000fa
:04024c00800300002b
:020000040000fa
:040250008003000027
:020000040000fa
:040254008003000023
:020000040000fa
:04025800800300001f
:020000040000fa
:04025c00800300001b
:020000040000fa
:040260008003000017
:020000040000fa
:040264008003000013
:020000040000fa
:100400004f0421000eff27000e01880000000000ad
:10041000000020000000e000020032000001200087
:100420002002880014000700b70007000000e00069
:1004300003003a00c08221000100200002003700c2
:100440000000200001002000810f70000100320038
:100450000f000700000020000000e0000200320052
:100460000000020000000000ce0b020000000000af
:100470000040da000000fe00200020000000e00044
:1004800002003200100020009001880000000600e9
:10049000a1028800800478000000eb001f003700f4
:1004a000e284440054a0b4009905ba00e2844400f8
:1004b00054a0b4009906ba00e284440054a0b400e9
:1004c0000006eb00476fde00fd07b200ae018800ba
:1004d000636ce10003003a000ad801000000eb0061
:1004e0000e003700606ce10008003a00004deb00a0
:1004f0000a05e800020039003420ec000af0a000f0
:100500008b05e900f9ff3e00040037006168e10057
:10051000010032000086eb000b00070019c7ba008b
:100520000e04e0001905ba0003003a000a00e000da
:10053000dbff3a0000000600fe07b200ae028800b2
:100540008a047800f5ff37000cd0a300e20f4d00bd
:100550001c003b0089027800354dba000a05e8000e
:10056000020039003420ec000af0a0008b05e900fd
:100570000f003200254dba000a05e80002003900dc
:100580003420ec000af0a0008b05e90008003200de
:100590000c00e0000600320015cdba000a05e800a4
:1005a000020039003420ec000af0a0008b05e900bd
:1005b0008984e80054a0b4000b00e000e2ff3a0098
:1005c000000006009902ba00055d78008b05e9007d
:1005d000f7ff3200c82ade00055d78008b05e900d0
:1005e000f3ff32000c00e000f1ff320019ddba0029
:1005f000eeff37003600f800809fbe00829fbe00ed
:10060000849fbe00869fbe000000fa000068a9001b
:1006100034080700540a0700000000000080fa00b8
:100620004f03be004f02be004f01be004f00be0090
:100630003600f900004006003600f800809fbe003a
:10064000829fbe00849fbe00869fbe000000fa000d
:100650005280800063808000100020000100200094
:10066000020040008380480050808800618088003c
:100670000368a9001b0807003b0a07002e050700b6
:10068000000000000080fa004f03be004f02be00d1
:100690004f01be004f00be003600f90000400600ca
:1006a0000000fa000108a900000000000080fa0024
:1006b00000400600801f78000000fa0001a8a90091
:1006c00000188000d081880010188000e081880028
:1006d00020188000f0818800301880000082880097
:1006e000401880001082880010c0b30011f0b700dd
:1006f000000000000080fa004f0078000040060073
:100700000040da000000fe00000005001400200098
:10071000aa033700f4ff2f00a80337000001be0032
:100720003c0007000470a70003f0a1006509b100b8
:10073000160032000d0035006828e1000600350083
:10074000f0ff2f00f1ff27000300e00013003b0043
:1007500001002800000005000000400081804800e2
:100760008502e900fcff3a0008003700f88f4200dc
:1007700002003c008000eb00000005008100d10079
:100780000080d3008502e800fcff3a000300e0008f
:1007900002003b0060001000e0801800000006002e
:1007a0000001be001b0007000470a70003f0a100b9
:1007b00003f8a30013003a006509b10010003200ed
:1007c000090035006928e100020035000100280019
:1007d0000000050000004000818048008502e9001b
:1007e000fcff3a0000000600f88f420005003500cb
:1007f0008100d1000080d3008502e800fcff3a00b0
:10080000000006008000eb00000005006011b80049
:1008100085033700c70ade00f107b200f50fb2000a
:1008200008003200e1cf4200020032000170a00057
:1008300024000500810f700001003200040805004b
:1008400044000500810f700002003a00140005000a
:100850008502e9000000400081c04800fcff3b0029
:100860000170a0002400050007f82700078361003d
:100870000638e10004003a00f70720008783610092
:100880008703710001003a0003f0a200889fbe00b8
:100890008a9fbe008c9fbe00470ade000480a10034
:1008a000c71ade000580a100070028000785600048
:1008b00087856100f70f20000720e1009e003200cd
:1008c0000728e1009c003200010678000400e000e7
:1008d000b4003200f7072000878060000170a0009c
:1008e0000500e000c0003200f707200087816100aa
:1008f0000370a000050652000f003a000b50e10003
:100900000b0032000308e10002003a000200e1009f
:100910007e0032000204500083845800040031003d
:100920000001fd008101fd008402fd008a05fd003b
:100930006044b800210037000520e10005003d00bb
:100940000001fd008101fd008402fd008a05fd001b
:10095000050652007a60e100050035000170a10033
:100960004722dd00848070008a80700063003700b9
:100970006044b800ef02660007ff2f00070666001c
:100980000500e00006003400f08312008714dd004b
:100990000511de00071bdd00060171008519de0070
:1009a0007060e100050035000904780082047800d9
:1009b000030178008001eb00700656000b50e10047
:1009c00003003a0002004000838048000400370022
:1009d00060041400e0841c0002005800838058006a
:1009e0000188a300060032008100d1000080d300fe
:1009f0008984d3000884d3000402e800270037006c
:100a00000178a30025003a000100e0000300320055
:100a10008186cf00698656000a0037008c002000ce
:100a20000000e00004003a00090078008804780023
:100a30000004eb00700252008086cf000d064600d5
:100a40000c06e9007060e1000600350080007800c7
:100a500009007800880478000004eb007006560056
:100a6000700252000c00e0000c0034008c08dd0025
:100a7000f00316000703de00868070000c00dd0026
:100a8000074bde00060070008c4cdd000743de00e3
:100a9000868474000c44dd000c0252006120e100e9
:100aa0002000350061016000070028008781640094
:100ab000f7ff270087836400070374000300e0004a
:100ac0000600320082037300040032000000e800d8
:100ad000e08048000188a3000e003a00f70f2000d4
:100ae0000720e1004a003d000170a1004722dd001f
:100af000810072008a8070000000be004f06be00b8
:100b00004f05be004f04be00000006006000b800a4
:100b1000faff37008100d1000080d3000402e80012
:100b2000eeff37000401780089017400a10107007d
:100b30008a807000f1ff3700f70107000702780094
:100b40000001fd008101fd00f3010700870278002c
:100b5000850372000778a300040032000001fd0045
:100b60008101fd0006020700e4ff370085036200f3
:100b70000768a300080032000b50e10003003200b8
:100b8000f0ff2f00f1ff2700dcff37000001fd0020
:100b90008101fd00d9ff37000468a300d7ff3200b0
:100ba000faff3700f8ff2700888360000b003a0047
:100bb0000000e00009003a008303640082837300b0
:100bc000020032000200be00ccff37000b50e100f3
:100bd000ceff3a000200be00c8ff3700140020001c
:100be000810064003eff3700f8ff27008883610022
:100bf00004003a000200e00002003a008c00780095
:100c0000beff3700150020008301640039ff370064
:100c100001f827000000200081007500b7ff3700b1
:100c2000889fbe008a9fbe008c9fbe001b002000d4
:100c30000202be000586680006002800060666005f
:100c40004709de00f20fb200820032000243e800e2
:100c500080003200c729de00f30fb2007d003200b1
:100c60000343e8007b003200f107b2000170a000ee
:100c7000f507b2000570a000c708dd004903de00db
:100c8000868070004700dd00c72add004923de00b2
:100c9000868272004722dd000305510004035000e4
:100ca0008583580003003100000040008180480027
:100cb0000a05e9008c1f78008a9fbe0004005000de
:100cc000858058000402420085824a0000004000ee
:100cd000818048000005eb000004be006033b800ce
:100ce0000406be000d48e100560031001100090065
:100cf0004dccd8000c01b8000d02b8008481410031
:100d000060824a008283530003045c0084845c0098
:100d100060055d000a00e00025003a0080057800cb
:100d20000d40e1004900310088007800070078009c
:100d3000110009004d88d8000c01b8000d02b80060
:100d40008481410060824a006003110083835b005c
:100d500004045c00e0845c000900e00021003a002b
:100d60004f01be000300e0002b003200e3016000f1
:100d7000070673008c81710001003200640070006e
:100d80004200de004e5edd000c007000c258de0046
:100d900001e0a00083010700cf017800818071008d
:100da0004f06be004f05be004f04be000000060007
:100db0008c8343000d044c00e0844c0060054d0022
:100dc0000000e9000a00e000d4ff32008c834300f9
:100dd0000d044c00e0844c0060054d000000e9006b
:100de000ceff37000c0343008d834b0060044c00a2
:100df000e0844c000000e9000900e000d8ff320068
:100e00000c0343008d834b0060044c00e0844c00d5
:100e10000000e900d2ff37004200de004e5edd0038
:100e20000c007000c258de0001e0a000cf01780085
:100e30000300e000daff320060001000e0801800dc
:100e4000d7ff3700f0ff2f00aaff3700f0ff2f0079
:100e5000b9ff37000404be002f01070087067800a1
:100e60000004fd008104fd002b01070007836600dc
:100e70000678a300030032000960a7000800be0046
:100e80002c0037000d78a300020032000800be00dd
:100e9000280037000778a30026003a0001f0a100df
:100ea00009f0a1000668a30003003200f1ff27004b
:100eb000f0ff2f00baff37000d68a30003003200d7
:100ec0000800be008c807000b5ff37000768a300e3
:100ed00007003a000648a30003003200f1ff270094
:100ee000f0ff2f00aeff37000d48a30003003200d3
:100ef0006000b8008c807000a9ff37000748a3008d
:100f00000400320001f82700000020008c807000ef
:100f1000a3ff3700760107000004fd008104fd00f7
:100f200002057800720107000802be008a017800fd
:100f300059ff37000160a000120220009280880053
:100f400097ff37000100e000120032000500e000ca
:100f500010003200889fbe008a9fbe008c9fbe009a
:100f60000006eb0001f8a30003003200600010004f
:100f7000e08018000cf0a00005f8a3000300320088
:100f800060021200e0821a000cf0a2008005eb0063
:100f900041ff37006000b8000200050003836800cd
:100fa0000700280007036300470ade000480a10051
:100fb000c71ade000580a100f70f20000720e1001e
:100fc000420032000728e10040003200889fbe0046
:100fd0008a9fbe008c1f7800f107b200f307b200b1
:100fe0000400e000640032000170a0000500e00091
:100ff000680032000370a00085054200eb07b100d5
:101000000204b8000302b8008484440060854a00ea
:10101000020ab800848444000a854a00030ab80022
:1010200004054500040033000804d0008984d20080
:101030000a85d2008b05e9006158e1003d003500ca
:10104000021020000901610003082000898161006d
:10105000f70720008783640008867300c84cde0011
:10106000c853dd00878474004855de000300e000ab
:101070000600320082037600040032008904e80092
:1010800060054d000a88a3000c003a00f70f20000d
:101090000758e10044003d000a70a100c75ddd0073
:1010a0000a8575008a007300090078004f067800f1
:1010b0004f05be004f04be00000006000a05d10027
:1010c0008984d3008b05e800f0ff3700881f780083
:1010d0000604780090000700070278000001fd0078
:1010e0008101fd008c0007008702780085037200f3
:1010f0000778a300050032000001fd008101fd001a
:101100009f0007004f04780000000600850372006e
:101110000748a30003003200f0ff2f00f1ff270073
:10112000f8ff37000000200001f8270088807000d9
:10113000f4ff3700880178004848dd0080817100a5
:101140004848de00c850dd0001007000c850de00d5
:10115000060478000b0178001600070088807000f4
:10116000d2ff37000500e000050032001700200024
:101170003a0007009dff370081037000f9ff3a0035
:10118000860078004f0678004f05be004f04be0071
:101190000000050083037100f9ff320027002000e2
:1011a0002e00070094ff370001f8270086807000aa
:1011b000f4ff37000100e000260032006101110059
:1011c0007810e10023003c006022b8007010e100bc
:1011d0000400350080027800010078008000eb00f8
:1011e000700151000200e00009003400700311009a
:1011f000062add00822ade008603dd008782720077
:101200000200de00860bdd00070070008208de00b1
:1012100084817100f4ff27000482620084817100e0
:1012200004002800848262006102600005f0a600cc
:101230000000060004827100070032000000e80090
:10124000e0804800000006000002be006000b80018
:10125000efff37006000b80000000600889fbe0066
:101260000004eb006138e10016003a000100e000e4
:1012700008003a00c800de004800dd0088002000b9
:101280000100e00003003a00c800de004800dd0075
:10129000680444008184cf00e984540006003400cf
:1012a0008908dd00f08314008703de00878070006a
:1012b0000900dd0009044400610214004f04be006f
:1012c000000006000300e00008003a00c811de003c
:1012d0004811dd00880020000300e00003003a0010
:1012e000c811de004811dd00680444008384cf008b
:1012f000e9845400060034008919dd00f0831400ed
:101300008713de00878171000911dd0009044400a4
:10131000e1021400e9ff37002700200001f0a700d8
:1013200017002000470bde00f60fb2000400320069
:101330000643e8000a0032004702b300000006003e
:1013400001037800f607b2000603700002003a00bd
:101350000703b300000006008702b3000000060088
:1013600001037800f607b2000603700002003200a5
:101370000770a000000006000760a0000000060043
:101380000478a300040032000578a30003003200b3
:101390000168a30001003a000200be000160a00045
:1013a0000000060081017000270032008002eb007f
:1013b00001f8a3000300320060001000e080180074
:1013c00015002000f4072000020242002000340033
:1013d000f703200087036000060420000003630079
:1013e00002082000000161004700de00c909dd009d
:1013f00000807100c708de000600e000080032002f
:1014000087037100060032001000b0000180b000b8
:101410000188a30002003200c108de000402e800d7
:10142000f107b200f30f20000320e10003003d00ac
:101430004722dd00810072002900370001f82700f3
:101440000000eb00260037006000b8000000060036
:10145000680212007f20e100020034006000b80042
:101460001f0037006011b8007020e1000400350053
:1014700080017800010078008000eb0070025200cb
:101480000400e00009003400f00312000719dd0039
:101490008419de000703dd00868171000400de0090
:1014a000070bdd00060070008408de00f7ff270050
:1014b0008383630087037100060028000303630031
:1014c000070032000700e00003003a0061016000fd
:1014d00002817300020032001000b0000180b000f1
:1014e0000500a6000000060001f0a00000000600b4
:1014f0004f0ade004709de00f107b200f20fb2002a
:101500000b003200f207b1000170a000c708dd0037
:10151000c901de00838070004700dd000400a600e2
:101520000000060060001000e080180000000600c7
:10153000810f700001003a00000006008182cf0098
:101540000500e00010003e008082cf00ee824200e5
:101550007028e1000400390007003e008000780098
:101560000000eb000e003700708312008600de00e2
:101570000500dd000a003700708352008600dd00a0
:101580000000eb0006003700e28252008508dd0013
:10159000708312000603de00868070000500dd0007
:1015a0007507b0000501ea000400a600000006006f
:1015b00060001000e080180000000600889fbe0058
:1015c0008a9fbe00841f78006c0007004f007800df
:1015d00011003300f0ff2f00838f6c0006003b00ea
:1015e000040565000a00a7000800370009f0a600fe
:1015f0001000200008003700820f5400838f5c0029
:10160000030039001000200001003e00000020000f
:1016100009f0a7000000ea004f05be004f04be001d
:101620000000e00000000600889fbe008a9fbe0008
:1016300000827000040271000482710026003200f2
:101640000004be000200be006011b8006b0920005b
:10165000950220000182cf000a0039000541b10047
:101660000082cf00070039000541b1000982cf0098
:10167000040039000541b1000882cf0001003900a3
:101680000541b10005425200120032000a003b0041
:1016900082817100610164008100d1000080d3006b
:1016a0008984d3000884d3008b05e8000442e80055
:1016b000f7ff3a00070037000804440089844c0013
:1016c00000004800818048008b05e9000442e900e1
:1016d000f9ff3a00030007004f05be004f04be00ab
:1016e0000000060081002000618055000b003d00d5
:1016f0000b00200061fe2f000100e1001d003400fe
:1017000082817100610164008904d1000884d300e2
:101710000000e800faff3a00710020006100640058
:101720000300700002006000090032006104440000
:10173000e0844c000988a500050032008b05e80014
:101740006808e10002003a008904d1000884d3004f
:10175000f20f20000258e10005003d00c75ddd00ea
:10176000f907b200898075000800780000000600c3
:101770000bf827008b007800000005000004be0075
:1017800024fc07000003be000405be000200be00ea
:0c17900020fc0700844f750000000600dc
:020000040000fa
:10179c000600fa006b050700020607008603070027
:1017ac006d0307009e030700b305070012c0b300ca
:1017bc0000002000011a2400b503070022c0b3006a
:1017cc0000002000011a2400b10307006e0307007b
:1017dc00eb050700e14f5000fdff3a00ec05070058
:1017ec00e3050700000f78001e0078001000780059
:1017fc008000eb0002fc0700323323003305240089
:10180c00e3fd0700000178000100780082027800f7
:10181c000002780002002000035824000500780024
:10182c00840078000000be00fafc07001007980046
:10183c00210798001e019000ae01900000002000ce
:10184c0081202400f3fc07000001780001007800df
:10185c00820278000002780002002000030a2400b3
:10186c0005007800840078000000be00fbfb070038
:10187c008001780001017800030078008200780074
:10188c000000be0070818800818188001e80e80005
:10189c00100078008000eb00d9fb070032332300e6
:1018ac0033052400bafd0700000178000100780020
:1018bc008202780000027800020020000358240005
:1018cc0005007800840078000000be00d1fc070001
:1018dc0010079800210798001e019000ae0190009f
:1018ec000000200081202400cafc070000017800c1
:1018fc0001007800820278000002780002002000cb
:10190c00030a240005007800840078000000be0063
:10191c00d2fb0700800178000101780003007800f9
:10192c00820078000000be00508188006181880030
:10193c00410020001e804000100078008000eb0069
:10194c00affb0700323323003305240090fd070062
:10195c000001780001007800820278000002780013
:10196c000200200003582400050078008400780051
:10197c000000be00a7fc0700100798002107980084
:10198c001e019000ae019000000020008120240078
:10199c00a0fc0700000178000100780082027800aa
:1019ac000002780002002000030a240005007800e1
:1019bc00840078000000be00a8fb070080017800be
:1019cc000101780003007800820078000000be005e
:1019dc003081880041818800610020001e80400019
:1019ec00100078008000eb0085fb070032332300e9
:1019fc003305240066fd0700000178000100780023
:101a0c0082027800000278000200200003582400b3
:101a1c0005007800840078000000be007dfc070003
:101a2c0010079800210798001e019000ae0190004d
:101a3c00000020008120240076fc070000017800c3
:101a4c000100780082027800000278000200200079
:101a5c00030a240005007800840078000000be0012
:101a6c007efb0700800178000101780003007800fc
:101a7c00820078000000be00b0818800c18188001f
:101a8c00810020001e804000100078008000eb00d8
:101a9c005bfb070032332300330524003cfd0700b9
:101aac0000017800010078008202780000027800c2
:101abc000200200003582400050078008400780000
:101acc000000be0053fc0700100798002107980087
:101adc001e019000ae019000000020008120240027
:101aec004cfc0700000178000100780082027800ad
:101afc000002780002002000030a24000500780090
:101b0c00840078000000be0054fb070080017800c0
:101b1c000101780003007800820078000000be000c
:101b2c0090818800a181880029ff37000000fa000d
:101b3c00528080006380800000a62e0001002000ef
:101b4c00800f5100818f590002003600c0c0b300d5
:101b5c000ef0b700907380004200de006140600020
:101b6c00e14f500001003a000e70ef000ed0bf00a4
:101b7c000080fb006100b900d200200003002000af
:101b8c00820f5000838f58006c003e00000601004d
:101b9c000d0037001b0037002400370033003700de
:101bac00340037003d0037003e0037004700370057
:101bbc004800370052003700530037005d003700f3
:101bcc0060003700680037000a30ef000c30ef007f
:101bdc00907380004200de00614060000004e00071
:101bec00f9ff32000041eb006000b800a8020700ca
:101bfc0012c0b3006000b800a502070010c0b3000b
:101c0c000ef0b7005280800063808000803e200080
:101c1c0001002000800f5100818f590054003600c4
:101c2c0020c0b3000ef0b700510037000041eb00ac
:101c3c0000002000011c24009502070012c0b30014
:101c4c0000002000811b24009102070030c0b3006b
:101c5c000ef0b700020ea800032ea80093eea80009
:101c6c00034ea800726ea800420037004400070023
:101c7c00400037000041eb0000002000011a240056
:101c8c008302070012c0b3006000b8008002070096
:101c9c0050c0b3000ef0b700360037003800070014
:101cac00340037000041eb006000b80078020700f8
:101cbc0012c0b30000002000011a240074020700b7
:101ccc0070c0b3000ef0b7002a0037002c000700dc
:101cdc00280037000041eb00000020000117240011
:101cec006b02070012c0b3000000200001172c008b
:101cfc006702070090c0b3000ef0b7001d0037005c
:101d0c001f0007001b0037000041eb000000200003
:101d1c0001172c005e02070012c0b3000000200067
:101d2c00011724005a020700b0c0b3000ef0b70030
:101d3c0010003700120007000e0037000e70ef0085
:101d4c000c0037000041eb006000b80050020700a7
:101d5c0012c0b3006000b8004d020700d0c0b30041
:101d6c000ef0b70003003700000000000100370040
:101d7c0000000000000000000080fa0000000600d7
:101d8c000200fa000040eb00004f78003081800028
:101d9c004181800002002000c320240058fa070073
:101dac000000e00011003d00508180006181800046
:101dbc0002002000831c240053fa07000000e000fe
:101dcc000a003400708180008181800002002000b4
:101ddc00c32024004cfa07000000e000030034008c
:101dec0020c0b300004f78004d00370030818000d8
:101dfc004181800002002000c320240042fa070029
:101e0c000000e000110034005081800061818000ee
:101e1c0002002000831c24003bfa07000000e000b5
:101e2c000a00340070818000818180000200200053
:101e3c00c320240032fa07000000e00003003d003c
:101e4c0010c0b300004f780035003700508180007f
:101e5c006181800002002000831c240028fa070006
:101e6c000000e00003003d0030c0b300004f7800dc
:101e7c002b0037003081800041818000020020005f
:101e8c00c320240020fa07000000e00011003400f9
:101e9c00508180006181800002002000831c24009e
:101eac0019fa07000000e0000a003400708180007d
:101ebc008181800002002000c320240012fa070058
:101ecc000000e000030034000040eb00004f7800fd
:101edc0013003700b0818000c18180000200200017
:101eec008324240006fa07000000e00003003d00f4
:101efc0030c0b300004f780009003700908180009b
:101f0c00a18180000200200083242400fcf907003a
:101f1c000000e00002003d0030c0b300004f78002c
:101f2c001e4078000004e00003003a0020c0b3001b
:101f3c000ff0b700110037001e407800e24f500040
:101f4c0003003a0040c0b3000ff0b7000b0037009d
:101f5c001e407800e14f500003003a0060c0b3000f
:101f6c000ff0b700050037001e407800e34f50001b
:101f7c0002003a0080c0b3000ff0b7000fd0bf00d2
:101f8c000080fb00e1002100914078008180fb0083
:101f9c008100e900810f5000020032000fd0bf0019
:101fac000ef0b700000000000080fa0000000600f0
:101fbc000400fa00008fbe00200880000040a10041
:101fcc000050a100200888001e0178009e0190009e
:101fdc000068290081c124000efb07000001780075
:101fec0001007800820278000002780002f02f00d5
:101ffc00f377240005007800840078000000be0010
:10200c00c1f907000000e0008d00340020088000ba
:10201c000040a0000050a100200888001e0178009c
:10202c009e0190000068290081c12400f9fa070084
:10203c00000178000100780082027800000278002c
:10204c0002002000031024000500780084007800b2
:10205c000000be00effa07000001780001007800d4
:10206c00820278000002780002f02f00f37724003f
:10207c0005007800840078000000be00a2f907007b
:10208c000000e00055003400200880000040a10052
:10209c000050a000200888001e0178009e019000ce
:1020ac000068290081c12400dafa070000017800d9
:1020bc000100780082027800000278000200200003
:1020cc000328240005007800840078000000be007e
:1020dc00d0fa070000017800010078008202780035
:1020ec000002780002f02f00f3772400050078003e
:1020fc00840078000000be0083f907000000e000b7
:10210c001d003400200880000040a0000050a000fa
:10211c00200888001e0178009e01900000682900ac
:10212c0081c12400bbfa070000017800010078008f
:10213c00820278000002780002002000033824009c
:10214c0005007800840078000000be00b1fa07009a
:10215c00000178000100780082017800000178000d
:10216c0003007800820078000000be0068f90700c8
:10217c0010088800400037001e0178009e01900076
:10218c000068290081c12400a2fa07000001780030
:10219c000100780082027800000278000200200022
:1021ac000328240005007800840078000000be009d
:1021bc0098fa07000001780001007800820178008d
:1021cc000001780003007800820078000000be0057
:1021dc004ff9070010088800270037001e0178000f
:1021ec009e0190000068290081c1240089fa070033
:1021fc00000178000100780082027800000278006b
:10220c0002002000031024000500780084007800f0
:10221c000000be007ffa0700000178000100780082
:10222c0082017800000178000300780082007800b9
:10223c000000be0036f90700100888000e003700b9
:10224c001e0178009e0190000068290081c12400c5
:10225c0070fa070000017800010078008201780014
:10226c000001780003007800820078000000be00b6
:10227c0027f9070010088800000000000080fa0011
:10228c00000006000400fa00008fbe00f008800079
:10229c000040a1000050a100f00888001e01780049
:1022ac009e0190000068290081c1240059fa0700a2
:1022bc0000017800010078008202780000027800aa
:1022cc0002f02f00f37724000500780084007800da
:1022dc000000be000cf907000000e0008d00340087
:1022ec00f00880000040a0000050a100f008880019
:1022fc001e0178009e0190000068290081c1240015
:10230c0044fa07000001780001007800820278008e
:10231c000002780002002000031024000500780061
:10232c00840078000000be003afa07000001780033
:10233c0001007800820278000002780002f02f0081
:10234c00f377240005007800840078000000be00bc
:10235c00edf807000000e00055003400f0088000a4
:10236c000040a1000050a000f00888001e01780079
:10237c009e0190000068290081c1240025fa070005
:10238c0000017800010078008202780000027800d9
:10239c000200200003282400050078008400780047
:1023ac000000be001bfa0700000178000100780055
:1023bc00820278000002780002f02f00f3772400ec
:1023cc0005007800840078000000be00cef80700fd
:1023dc000000e0001d003400f00880000040a00068
:1023ec000050a000f00888001e0178009e019000ab
:1023fc000068290081c1240006fa0700000178005a
:10240c0001007800820278000002780002002000af
:10241c000338240005007800840078000000be001a
:10242c00fcf90700000178000100780082017800b7
:10243c000001780003007800820078000000be00e4
:10244c00b3f80700d0088800400037001e01780060
:10245c009e0190000068290081c12400edf907005d
:10246c0000017800010078008202780000027800f8
:10247c000200200003282400050078008400780066
:10248c000000be00e3f907000001780001007800ad
:10249c008201780000017800030078008200780047
:1024ac000000be009af80700d0088800270037000b
:1024bc001e0178009e0190000068290081c1240053
:1024cc00d4f907000001780001007800820278003e
:1024dc0000027800020020000310240005007800a0
:1024ec00840078000000be00caf9070000017800e3
:1024fc000100780082017800000178000300780068
:10250c00820078000000be0081f80700d008880027
:10251c000e0037001e0178009e0190000068290013
:10252c0081c12400bbf9070000017800010078008c
:10253c0082017800000178000300780082007800a6
:10254c000000be0072f80700d008880000000000f0
:10255c000080fa00000006000000fa0000002000d5
:10256c008124240092fe070005e1a9000421a900a2
:10257c000068a9002068a80005e1a8000000000080
:10258c000080fa00000006000000fa0000002000a5
:10259c00a14724003bff07001fe1a9001e21a90051
:1025ac000368a9002368a8001fe1a8000000000030
:1025bc000080fa00000006000000fa0013e1a900f8
:1025cc0011e1a9001061a8001021a9008008800069
:1025dc000040a1000050a100800888000a21ef00f3
:1025ec000621ef00303920007008880000702800a8
:1025fc0060088800204280000000a0000010a100ac
:10260c000020a100204288000108a9002108a80090
:10261c0011e1a800000000000080fa000000060094
:10262c000000fa0002ccbf000000a1000010a100c5
:10263c000020a10002ecb70000962000206088006a
:10264c001061800000a0a00000b0a0001061880004
:10265c0023cca80023eca8003000200020618800c7
:10266c001062800000a0a00000b0a00010628800e2
:10267c0043cca80043eca800300020002062880066
:10268c0001eca800000000000080fa000000060029
:10269c000600fa00008fbe00424798004e409000a2
:1026ac000004e000050032001e0178009e0190003d
:1026bc00f280880003818800040037001e01780036
:1026cc009e019000b2808800c3808800000000004a
:1026dc000080fa00000006000000fa00889fbe008f
:1026ec001481800025818000f080800001818000b1
:1026fc000001be000400be0001f807000000e0006d
:10270c0014003d00f8808000098180001481800055
:10271c002581800020808000318080000001be0077
:10272c000400be0056f80700000178000100780094
:10273c0082027800000278000801be0005007800d3
:10274c00840078000000be000d0107001081880095
:10275c00218188001481800025818000f080800018
:10276c00018180000001be000400be00e6f70700f6
:10277c000000e00014003400f88080000981800023
:10278c0014818000258180002080800031808000b1
:10279c000001be000400be0030f807000001780004
:1027ac000100780082027800000278000801be0067
:1027bc0005007800840078000000be00d9000700f6
:1027cc001081880021818800108180002181800087
:1027dc006011b800ccf707000000e0001e003500c7
:1027ec00108180002181800002002000031c240045
:1027fc00e7f90700000178000100780082027800f8
:10280c000002780000808000118080000001be0072
:10281c0005007800840078000000be0018f807005e
:10282c000001780001007800820178000001780036
:10283c0003007800820078000000be00d5f7070086
:10284c00706188000080800011808000d1f7070043
:10285c00306188001e0037000080800011808000ed
:10286c00ccf7070070618800108180002181800006
:10287c0001f0a20002002000031c2400c4f9070090
:10288c0000017800010078008202780000027800d4
:10289c0000808000118080000001be0005007800df
:1028ac00840078000000be00f5f7070000017800f6
:1028bc0001007800820178000001780003007800a4
:1028cc00820078000000be00b2f70700306188007b
:1028dc00d4808000e5808000b0808000c1808000c2
:1028ec000001be000400be0085f707000000e000f8
:1028fc0014003d00b8808000c9808000d480800026
:10290c00e580800020808000318080000001be00c6
:10291c000400be00daf7070000017800010078001f
:10292c0082027800000278000801be0005007800e1
:10293c00840078000000be0091000700d080880061
:10294c00e1808800d4808000e5808000b080800029
:10295c00c18080000001be000400be006af70700c1
:10296c000000e00014003400b8808000c9808000b2
:10297c00d4808000e5808000208080003180800041
:10298c000001be000400be00b4f70700000178008f
:10299c000100780082027800000278000801be0075
:1029ac0005007800840078000000be005d00070080
:1029bc00d0808800e1808800d0808000e180800099
:1029cc006011b80050f707000000e0001e00340052
:1029dc00d0808000e180800002002000031c2400d5
:1029ec006bf9070000017800010078008202780082
:1029fc000002780000808000118080000001be0081
:102a0c0005007800840078000000be009cf70700e9
:102a1c000001780001007800820178000001780044
:102a2c0003007800820078000000be0059f7070010
:102a3c0070628800008080001180800055f70700cc
:102a4c00306288001e0037000080800011808000fa
:102a5c0050f7070070628800d0808000e180800011
:102a6c0001f0a20002002000031c240048f907001a
:102a7c0000017800010078008202780000027800e2
:102a8c0000808000118080000001be0005007800ed
:102a9c00840078000000be0079f707000001780080
:102aac0001007800820178000001780003007800b2
:102abc00820078000000be0036f707003062880004
:102acc00000000004f04be000080fa000000060069
:102adc000400fa00008fbe006011b8001e007800e0
:102aec009e00900008f707000000e000030035008e
:102afc001e0078009e009000030037001e00780036
:102b0c009e00900001f0a200800178000101780085
:102b1c0003007800820078000000be000080fa00fc
:102b2c00000006000800fa00008fbe002207980083
:102b3c00330798002e019000be0190001e00780013
:102b4c009e009000f0f607000000e0000300340047
:102b5c009e0078001e00900002003700ae0090002e
:102b6c003e0090008101780000017800030078009d
:102b7c00820078000000be000080fa000000060011
:102b8c000800fa00008fbe00220798003307980057
:102b9c002e019000be0190001e0078009e00900057
:102bac00d7f607000000e00003003d009e0078000f
:102bbc001e00900002003700ae0090003e00900016
:102bcc008101780000017800030078008200780011
:102bdc000000be000080fa00000006000c00fa00a5
:102bec00008fbe0022079800330798004407980016
:102bfc00550798004e019000de0190001e007800f1
:102c0c009e009000c0f607000000e00004003400b5
:102c1c004e019000de019000028fbe000a003700ca
:102c2c002e019000be0190001e0078009e009000c6
:102c3c00b3f607000000e00003003d002e019000f9
:102c4c00be019000028fbe009e0078001e00900016
:102c5c008101780000017800030078008200780080
:102c6c000000be000080fa00000006000400fa001c
:102c7c00008fbe00b2fd2000930424001e007800db
:102c8c009e009000e3f70700000178000100780037
:102c9c0082027800000278000200200043332400f6
:102cac0005007800840078000000be00b8f807002a
:102cbc000001780001007800820078008101780022
:102ccc000001780003007800820078000000be004c
:102cdc000080fa00000006000400fa00008fbe001d
:102cec00b2fd2000930424001e0078009e0090008a
:102cfc00a7f8070000017800010078008202780034
:102d0c000002780002002000433324000500780004
:102d1c00840078000000be00bef7070000017800b8
:102d2c0001007800820078008101780000017800b1
:102d3c0003007800820078000000be000080fa00da
:102d4c00000006000000fa00817420009140780019
:102d5c0000ccb30000c060007041b30048e7b7007e
:102d6c00313a800000e02f00808060008005200058
:102d7c0001007000303a8800203a80000060a10009
:102d8c000070a100203a8800213a800000fe2f003c
:102d9c00008060000000a000203a88001200200093
:102dac0080072000a109200033742000804978009e
:102dbc008149780082497800103a8000000178003f
:102dcc000200a00060042000710520002374200084
:102ddc008049780081497800824978000000000021
:102dec00103a80004c00de0067406000e14f50005c
:102dfc00fbff3a005927a800c03a80000000a00051
:102e0c000010a1000020a100c03a88005ac7bf00e2
:102e1c000000a0000010a0000020a0005ae7b7009e
:102e2c00c03a80000050a1000060a0000070a0001b
:102e3c00c03a880059a7a80059e7a8000000000074
:102e4c00c03a80004e00de0061406000e14f50004f
:102e5c00fbff3a0000000000103a80004500de0045
:102e6c0061406000e14f5000fbff3a0000000000a1
:102e7c000080fa00000006000000fa0021e3a9001f
:102e8c002143a800001980000080a1000090a1003f
:102e9c00001988002043a900001980000050a000f0
:102eac000060a0000070a0000019880010198000bc
:102ebc0000d0a10000e0a10000f0a10010198800d2
:102ecc002343a800101980000080a1000090a100ed
:102edc00101988001119800030f82f000080600054
:102eec000040a000101988002203a9002223a90089
:102efc0025e3a900f0c0b30024e3b700211980003a
:102f0c00f00f2e008080600000f0200001007000a7
:102f1c00201988003303a9001f0ea8001f2ea8003b
:102f2c001f4ea8003103a8003123a8003143a8008c
:102f3c004119800000fe2f000080600040198800bd
:102f4c0028e3a90001a8a90021a8a80021e3a80052
:102f5c00000000000080fa00000006000000fa00eb
:102f6c002023a800000000000080fa0000000600ea
:102f7c000000fa00a00321000080fa000000060007
:102f8c000000fa0011d0bf000080fa00000006001b
:102f9c000000fa001170ef00000000000080fa0041
:102fac00000006000000fa000e2eef001e2eef00af
:102fbc003e2eef002e2eef004e2eef006e2eef0069
:102fcc0080cea90080aea900808ea900816ea900d8
:102fdc00714ea900014ea90091eea900012ea90085
:102fec00000ea900706ea9000e0007000300070078
:102ffc00000000000080fa00000006000000fa004b
:10300c00217420006204200073052000824878009f
:10301c008348780042c7a800000000000080fa0036
:10302c00000006000000fa00217420006204200059
:10303c0073052000824878008348780042c7a900b5
:0c304c00000000000080fa0000000600f8
:020000040000fa
:103058000e100000020000008000000008100000b0
:103068000600000080000000141000002600000088
:10307800800000000010000008000000820000002e
:103088000000a00041000000a04000003a1000002d
:103098000a0000008000000010100000020000007c
:1030a80080000000121000000200000080000000f4
:0430b8000000000014
:020000040000fa
:0200000401f009
:04000800cfffff0027
:020000040000fa
:0200000401f009
:04000c00f9ffff00f9
:020000040000fa
:0200000401f009
:040010005bffff0093
:020000040000fa
:0200000401f009
:040014007fffff006b
:020000040000fa
:0200000401f009
:04001800cfffff0017
:020000040000fa
:0200000401f009
:04001c00deffff0004
:020000040000fa
:0200000401f009
:04002000cfffff000f
:00000001FF
