:020000040000fa
:080000001c02040000000000d6
:020000040000fa
:040008000e040000e2
:020000040000fa
:04000c000e040000de
:020000040000fa
:040010000e040000da
:020000040000fa
:040014000e040000d6
:020000040000fa
:040018000e040000d2
:020000040000fa
:04001c000e040000ce
:020000040000fa
:040020000e040000ca
:020000040000fa
:040024000e040000c6
:020000040000fa
:040028000e040000c2
:020000040000fa
:04002c000e040000be
:020000040000fa
:040030000e040000ba
:020000040000fa
:0400340016030000af
:020000040000fa
:040038000e040000b2
:020000040000fa
:04003c000e040000ae
:020000040000fa
:040040000e040000aa
:020000040000fa
:040044000e040000a6
:020000040000fa
:040048006a03000047
:020000040000fa
:04004c000e0400009e
:020000040000fa
:040050000e0400009a
:020000040000fa
:04005400c6030000df
:020000040000fa
:040058009a03000007
:020000040000fa
:04005c007403000029
:020000040000fa
:040060000e0400008a
:020000040000fa
:040064000e04000086
:020000040000fa
:040068000e04000082
:020000040000fa
:04006c000e0400007e
:020000040000fa
:040070000e0400007a
:020000040000fa
:040074000e04000076
:020000040000fa
:040078000e04000072
:020000040000fa
:04007c000e0400006e
:020000040000fa
:040080000e0400006a
:020000040000fa
:040084000e04000066
:020000040000fa
:040088000e04000062
:020000040000fa
:04008c000e0400005e
:020000040000fa
:040090000e0400005a
:020000040000fa
:04009400360300002f
:020000040000fa
:040098000e04000052
:020000040000fa
:04009c000e0400004e
:020000040000fa
:0400a0000e0400004a
:020000040000fa
:0400a4000e04000046
:020000040000fa
:0400a8000e04000042
:020000040000fa
:0400ac000e0400003e
:020000040000fa
:0400b0000e0400003a
:020000040000fa
:0400b4000e04000036
:020000040000fa
:0400b8000e04000032
:020000040000fa
:0400bc000e0400002e
:020000040000fa
:0400c0000e0400002a
:020000040000fa
:0400c4000e04000026
:020000040000fa
:0400c8000e04000022
:020000040000fa
:0400cc000e0400001e
:020000040000fa
:0400d0000e0400001a
:020000040000fa
:0400d4000e04000016
:020000040000fa
:0400d8000e04000012
:020000040000fa
:0400dc000e0400000e
:020000040000fa
:0400e0000e0400000a
:020000040000fa
:0400e4000e04000006
:020000040000fa
:0400e8000e04000002
:020000040000fa
:0400ec000e040000fe
:020000040000fa
:0400f0000e040000fa
:020000040000fa
:0400f4000e040000f6
:020000040000fa
:0400f8000e040000f2
:020000040000fa
:0400fc000e040000ee
:020000040000fa
:040100000e040000e9
:020000040000fa
:040104000e040000e5
:020000040000fa
:040108000e040000e1
:020000040000fa
:04010c000e040000dd
:020000040000fa
:040110000e040000d9
:020000040000fa
:040114000e040000d5
:020000040000fa
:040118000e040000d1
:020000040000fa
:04011c000e040000cd
:020000040000fa
:040120000e040000c9
:020000040000fa
:040124000e040000c5
:020000040000fa
:040128000e040000c1
:020000040000fa
:04012c000e040000bd
:020000040000fa
:040130000e040000b9
:020000040000fa
:040134000e040000b5
:020000040000fa
:040138000e040000b1
:020000040000fa
:04013c000e040000ad
:020000040000fa
:040140000e040000a9
:020000040000fa
:040144000e040000a5
:020000040000fa
:040148000e040000a1
:020000040000fa
:04014c000e0400009d
:020000040000fa
:040150000e04000099
:020000040000fa
:040154000e04000095
:020000040000fa
:040158000e04000091
:020000040000fa
:04015c000e0400008d
:020000040000fa
:040160000e04000089
:020000040000fa
:040164000e04000085
:020000040000fa
:040168000e04000081
:020000040000fa
:04016c000e0400007d
:020000040000fa
:040170000e04000079
:020000040000fa
:040174000e04000075
:020000040000fa
:040178000e04000071
:020000040000fa
:04017c000e0400006d
:020000040000fa
:040180000e04000069
:020000040000fa
:040184000e04000065
:020000040000fa
:040188000e04000061
:020000040000fa
:04018c000e0400005d
:020000040000fa
:040190000e04000059
:020000040000fa
:040194000e04000055
:020000040000fa
:040198000e04000051
:020000040000fa
:04019c000e0400004d
:020000040000fa
:0401a0000e04000049
:020000040000fa
:0401a4000e04000045
:020000040000fa
:0401a8000e04000041
:020000040000fa
:0401ac000e0400003d
:020000040000fa
:0401b0000e04000039
:020000040000fa
:0401b4000e04000035
:020000040000fa
:0401b8000e04000031
:020000040000fa
:0401bc000e0400002d
:020000040000fa
:0401c0000e04000029
:020000040000fa
:0401c4000e04000025
:020000040000fa
:0401c8000e04000021
:020000040000fa
:0401cc000e0400001d
:020000040000fa
:0401d0000e04000019
:020000040000fa
:0401d4000e04000015
:020000040000fa
:0401d8000e04000011
:020000040000fa
:0401dc000e0400000d
:020000040000fa
:0401e0000e04000009
:020000040000fa
:0401e4000e04000005
:020000040000fa
:0401e8000e04000001
:020000040000fa
:0401ec000e040000fd
:020000040000fa
:0401f0000e040000f9
:020000040000fa
:0401f4000e040000f5
:020000040000fa
:0401f8000e040000f1
:020000040000fa
:0401fc000e040000ed
:020000040000fa
:040200000e040000e8
:020000040000fa
:040204000e040000e4
:020000040000fa
:040208000e040000e0
:020000040000fa
:04020c000e040000dc
:020000040000fa
:040210000e040000d8
:020000040000fa
:040214000e040000d4
:020000040000fa
:040218000e040000d0
:020000040000fa
:04021c000e040000cc
:020000040000fa
:040220000e040000c8
:020000040000fa
:040224000e040000c4
:020000040000fa
:040228000e040000c0
:020000040000fa
:04022c000e040000bc
:020000040000fa
:040230000e040000b8
:020000040000fa
:040234000e040000b4
:020000040000fa
:040238000e040000b0
:020000040000fa
:04023c000e040000ac
:020000040000fa
:040240000e040000a8
:020000040000fa
:040244000e040000a4
:020000040000fa
:040248000e040000a0
:020000040000fa
:04024c000e0400009c
:020000040000fa
:040250000e04000098
:020000040000fa
:040254000e04000094
:020000040000fa
:040258000e04000090
:020000040000fa
:04025c000e0400008c
:020000040000fa
:040260000e04000088
:020000040000fa
:040264000e04000084
:020000040000fa
:10040000f03fb1000180b10006003500ee030900a5
:1004100000000000403fb1000180b100fbff3d0043
:100420001000b000203fb00002003500008009003d
:100430000000000000000600af2221000eff270090
:100440000e01880000000000000020000000e00015
:100450000200320000012000200288001400070082
:10046000f00007000000e00003003a00c0a92200ed
:1004700001002000020037000000200001002000e1
:10048000810f7000010032000f0007000000200003
:100490000000e00002003200000002000000000046
:1004a00084110200000000000040da000000fe009d
:1004b000200020000000e0000200320010002000b8
:1004c0009001880000000600a102880080047800e6
:1004d0000000eb001f003700e284440054a0b40089
:1004e0009905ba00e284440054a0b4009906ba0009
:1004f000e284440054a0b4000006eb00476fde0025
:10050000fd07b200ae018800636ce10003003a0011
:100510000ad801000000eb000e003700606ce1001b
:1005200008003a00004deb000a05e800020039001f
:100530003420ec000af0a0008b05e900f9ff3e0032
:10054000040037006168e100010032000086eb0022
:100550000b00070019c7ba000e04e0001905ba0025
:1005600003003a000a00e000dbff3a00000006004a
:10057000fe07b200ae0288008a047800f5ff37005b
:100580000cd0a300e20f4d001c003b008902780054
:10059000354dba000a05e800020039003420ec00ad
:1005a0000af0a0008b05e9000f003200254dba00cb
:1005b0000a05e800020039003420ec000af0a0002f
:1005c0008b05e900080032000c00e0000600320054
:1005d00015cdba000a05e800020039003420ec000d
:1005e0000af0a0008b05e9008984e80054a0b4005b
:1005f0000b00e000e2ff3a00000006009902ba009a
:10060000055d78008b05e900f7ff3200c82ade009f
:10061000055d78008b05e900f3ff32000c00e00077
:10062000f1ff320019ddba00eeff37003600f800a6
:10063000809fbe00829fbe00849fbe00869fbe003a
:100640000000fa000068a900f70a07000000000097
:100650000080fa004f03be004f02be004f01be00f3
:100660004f00be003600f900004006003600f800da
:10067000809fbe00829fbe00849fbe00869fbe00fa
:100680000000fa0062818000738180001000200069
:100690000100200002004000838048006081880043
:1006a000718188000368a900830f07005d130700ac
:1006b00039080700000000000080fa004f03be0068
:1006c0004f02be004f01be004f00be003600f900d1
:1006d000004006000000fa000108a9000000000028
:1006e0000080fa0000400600801f78000000fa0039
:1006f00001a8a9000018800000918800101880004f
:100700001091880020188000209188003018800007
:1007100030918800401880004091880010c0b300dc
:100720003ff0b700000000000080fa004f007800a2
:10073000004006003600f800809fbe00829fbe0089
:10074000849fbe00869fbe000000fa000188a900b9
:100750009181800080818000808f500002003200f3
:1007600008120700010037003470ef00000000009d
:100770000080fa004f03be004f02be004f01be00d2
:100780004f00be003600f900004006003600f800b9
:10079000809fbe00829fbe00849fbe00869fbe00d9
:1007a0000000fa000168a900101180004200de007c
:1007b00061406000e14f500001003a002242a90070
:1007c000101180000000d10061406000e14f500036
:1007d00005003a002222a9000300370030118000f2
:1007e000004078008a120700101180000040780055
:1007f00061406000e14f5000f8ff3200000000004f
:100800000080fa004f03be004f02be004f01be0041
:100810004f00be003600f900004006000040da003c
:100820000000fe000000050014002000ad033700aa
:10083000f4ff2f00ab0337000001be003f000700ac
:100840000470a70003f0a1006509b1001600320092
:100850000d0035006828e10006003500f0ff2f008c
:10086000f1ff27000300e00013003b000100280017
:100870000000050000004000818048008502e9007a
:10088000fcff3a0008003700f88f420002003c00ed
:100890008000eb00000005008100d1000080d30043
:1008a0008502e800fcff3a000300e00002003b0084
:1008b00060001000e0801800000006000001be008b
:1008c0001e0007000470a70003f0a10003f8a300b6
:1008d00013003a006509b10010003200090035002c
:1008e0006928e10002003500010028000000050031
:1008f00000004000818048008502e900fcff3a00ca
:1009000000000600f88f4200050035008100d1008c
:100910000080d3008502e800fcff3a0000000600da
:100920008000eb00000005004f89de0082017800a6
:10093000870337006011b80095033700c70ade004f
:10094000f107b200f50fb20008003200e1cf42001b
:10095000020032000170a00024000500810f700029
:10096000010032000408050044000500810f7000fa
:1009700002003a00140005008502e9000000400072
:1009800081c04800fcff3b000170a000240005006e
:1009900007f82700078361000638e10004003a00e9
:1009a000f7072000878361008703710001003a0088
:1009b00003f0a200889fbe008a9fbe008c9fbe00ed
:1009c000470ade000480a100c71ade000580a100ee
:1009d000070028000785600087856100f70f200069
:1009e0000720e1009e0032000728e1009c00320051
:1009f000010678000400e000b4003200f707200090
:100a0000878060000170a0000500e000c000320097
:100a1000f7072000878161000370a00005065200df
:100a20000f003a000b50e1000b0032000308e10018
:100a300002003a000200e1007e0032000204500091
:100a400083845800040031000001fd008101fd0095
:100a50008402fd008a05fd006044b80021003700d3
:100a60000520e10005003d000001fd008101fd00c1
:100a70008402fd008a05fd00050652007a60e1004f
:100a8000050035000170a1004722dd008480700060
:100a90008a807000630037006044b800ef0266008f
:100aa00007ff2f00070666000500e000060034007f
:100ab000f08312008714dd000511de00071bdd0046
:100ac000060171008519de007060e1000500350047
:100ad0000904780082047800030178008001eb00ab
:100ae000700656000b50e10003003a00020040007f
:100af000838048000400370060041400e0841c0078
:100b000002005800838058000188a30006003200cc
:100b10008100d1000080d3008984d3000884d300f1
:100b20000402e800270037000178a30025003a00fe
:100b30000100e000030032008186cf006986560084
:100b40000a0037008c0020000000e00004003a009a
:100b500009007800880478000004eb00700252005d
:100b60008086cf000d0646000c06e9007060e100ab
:100b700006003500800078000900780088047800bd
:100b80000004eb0070065600700252000c00e000fa
:100b90000c0034008c08dd00f00316000703de00b3
:100ba000868070000c00dd00074bde000600700040
:100bb0008c4cdd000743de00868474000c44dd00ad
:100bc0000c0252006120e10020003500610160004c
:100bd0000700280087816400f7ff270087836400ef
:100be000070374000300e000060032008203730074
:100bf000040032000000e800e08048000188a30003
:100c00000e003a00f70f20000720e1004a003d00e7
:100c10000170a1004722dd00810072008a8070000f
:100c20000000be004f06be004f05be004f04be00d0
:100c3000000006006000b800faff37008100d10014
:100c40000080d3000402e800eeff370004017800c2
:100c500089017400a10107008a807000f1ff37004c
:100c6000f7010700070278000001fd008101fd0087
:100c7000f301070087027800850372000778a3005c
:100c8000040032000001fd008101fd0006020700a2
:100c9000e4ff3700850362000768a3000800320004
:100ca0000b50e10003003200f0ff2f00f1ff27009e
:100cb000dcff37000001fd008101fd00d9ff370096
:100cc0000468a300d7ff3200faff3700f8ff2700bf
:100cd000888360000b003a000000e00009003a0041
:100ce0008303640082837300020032000200be00ae
:100cf000ccff37000b50e100ceff3a000200be00ef
:100d0000c8ff370014002000810064003eff370058
:100d1000f8ff27008883610004003a000200e00029
:100d200002003a008c007800beff3700150020005a
:100d30008301640039ff370001f82700000020001c
:100d400081007500b7ff3700889fbe008a9fbe00f4
:100d50008c9fbe001b0020000202be0005866800ba
:100d600006002800060666004709de00f20fb20002
:100d7000820032000243e80080003200c729de0012
:100d8000f30fb2007d0032000343e8007b00320025
:100d9000f107b2000170a000f507b2000570a000d5
:100da000c708dd004903de00868070004700dd00d3
:100db000c72add004923de00868272004722dd005b
:100dc00003055100040350008583580003003100df
:100dd00000004000818048000a05e9008c1f78006f
:100de0008a9fbe0004005000858058000402420023
:100df00085824a0000004000818048000005eb0029
:100e00000004be006033b8000406be000d48e100d7
:100e100056003100110009004dccd8000c01b8007b
:100e20000d02b8008481410060824a008283530031
:100e300003045c0084845c0060055d000a00e0003f
:100e400025003a00800578000d40e100490031009e
:100e50008800780007007800110009004d88d8004c
:100e60000c01b8000d02b8008481410060824a0084
:100e70006003110083835b0004045c00e0845c0079
:100e80000900e00021003a004f01be000300e0002d
:100e90002b003200e3016000070673008c817100b3
:100ea00001003200640070004200de004e5edd0092
:100eb0000c007000c258de0001e0a00083010700b2
:100ec000cf017800818071004f06be004f05be0043
:100ed0004f04be00000006008c8343000d044c004c
:100ee000e0844c0060054d000000e9000a00e000cd
:100ef000d4ff32008c8343000d044c00e0844c008e
:100f000060054d000000e900ceff37000c034300f0
:100f10008d834b0060044c00e0844c000000e9002d
:100f20000900e000d8ff32000c0343008d834b0022
:100f300060044c00e0844c000000e900d2ff370060
:100f40004200de004e5edd000c007000c258de0084
:100f500001e0a000cf0178000300e000daff3200da
:100f600060001000e0801800d7ff3700f0ff2f006e
:100f7000aaff3700f0ff2f00b9ff37000404be00be
:100f80002f010700870678000004fd008104fd00a2
:100f90002b010700078366000678a30003003200d8
:100fa0000960a7000800be002c0037000d78a300e0
:100fb000020032000800be00280037000778a300b6
:100fc00026003a0001f0a10009f0a1000668a30084
:100fd00003003200f1ff2700f0ff2f00baff3700b7
:100fe0000d68a300030032000800be008c80700072
:100ff000b5ff37000768a30007003a000648a300c2
:1010000003003200f1ff2700f0ff2f00aeff370092
:101010000d48a300030032006000b8008c8070000f
:10102000a9ff37000748a3000400320001f8270099
:10103000000020008c807000a3ff370076010700bd
:101040000004fd008104fd00020578007201070024
:101050000802be008a01780059ff37000160a00035
:10106000120220000282880097ff37000100e00092
:10107000120032000500e00010003200889fbe0020
:101080008a9fbe008c9fbe000006eb0001f8a30003
:101090000300320060001000e08018000cf0a00097
:1010a00005f8a3000300320060021200e0821a007b
:1010b0000cf0a2008005eb0041ff37006000b80093
:1010c000020005000383680007002800070363008f
:1010d000470ade000480a100c71ade000580a100d7
:1010e000f70f20000720e100420032000728e1004e
:1010f00040003200889fbe008a9fbe008c1f78008f
:10110000f107b200f307b2000400e000640032000f
:101110000170a0000500e000680032000370a0002c
:1011200085054200eb07b1000204b8000302b800d5
:101130008484440060854a00020ab8008484440024
:101140000a854a00030ab80004054500040033007c
:101150000804d0008984d2000a85d2008b05e900fa
:101160006158e1003d0035000210200009016100d6
:101170000308200089816100f7072000878364004d
:1011800008867300c84cde00c853dd0087847400f5
:101190004855de000300e0000600320082037600be
:1011a000040032008904e80060054d000a88a300ad
:1011b0000c003a00f70f20000758e10044003d0002
:1011c0000a70a100c75ddd000a8575008a00730002
:1011d000090078004f0678004f05be004f04be009e
:1011e000000006000a05d1008984d3008b05e800c1
:1011f000f0ff3700881f7800060478009000070091
:10120000070278000001fd008101fd008c0007004d
:1012100087027800850372000778a300050032007a
:101220000001fd008101fd009f0007004f047800d0
:1012300000000600850372000748a3000300320087
:10124000f0ff2f00f1ff2700f8ff3700000020001b
:1012500001f8270088807000f4ff370088017800cb
:101260004848dd00808171004848de00c850dd003c
:1012700001007000c850de00060478000b01780001
:101280001600070088807000d2ff37000500e000dc
:1012900005003200170020003a0007009dff3700cc
:1012a00081037000f9ff3a00860078004f0678004d
:1012b0004f05be004f04be0000000500830371000f
:1012c000f9ff3200270020002e00070094ff3700ae
:1012d00001f8270086807000f4ff37000100e0006d
:1012e00026003200610111007810e10023003c006b
:1012f0006022b8007010e100040035008002780020
:10130000010078008000eb00700151000200e00055
:101310000900340070031100062add00822ade0075
:101320008603dd00878272000200de00860bdd008e
:10133000070070008208de0084817100f4ff27003e
:1013400004826200848171000400280084826200ab
:101350006102600005f0a600000006000482710032
:10136000070032000000e800e080480000000600ae
:101370000002be006000b800efff37006000b80058
:1013800000000600889fbe000004eb006138e10009
:1013900016003a000100e00008003a00c800de0034
:1013a0004800dd00880020000100e00003003a0052
:1013b000c800de004800dd00680444008184cf00de
:1013c000e9845400060034008908dd00f08314002d
:1013d0008703de00878070000900dd0009044400f7
:1013e000610214004f04be00000006000300e0008c
:1013f00008003a00c811de004811dd008800200016
:101400000300e00003003a00c811de004811dd00cf
:10141000680444008384cf00e9845400060034004b
:101420008919dd00f08314008713de0087817100c5
:101430000911dd0009044400e1021400e9ff37004e
:101440002700200001f0a70017002000470bde0056
:10145000f60fb200040032000643e8000a00320032
:101460004702b3000000060001037800f607b2004f
:101470000603700002003a000703b30000000600f4
:101480008702b3000000060001037800f607b200ef
:1014900006037000020032000770a0000000060082
:1014a0000760a000000006000478a30004003200da
:1014b0000578a300030032000168a30001003a0090
:1014c0000200be000160a000000006008101700063
:1014d000270032008002eb0001f8a3000300320075
:1014e00060001000e080180015002000f4072000c4
:1014f0000202420020003400f7032000870360004e
:1015000006042000000363000208200000016100bf
:101510004700de00c909dd0000807100c708de0059
:101520000600e00008003200870371000600320068
:101530001000b0000180b0000188a300020032005a
:10154000c108de000402e800f107b200f30f20003a
:101550000320e10003003d004722dd00810072000e
:101560002900370001f827000000eb0026003700b3
:101570006000b80000000600680212007f20e10051
:10158000020034006000b8001f0037006011b8008e
:101590007020e1000400350080017800010078002f
:1015a0008000eb00700252000400e00009003400eb
:1015b000f00312000719dd008419de000703dd00c7
:1015c000868171000400de00070bdd00060070005c
:1015d0008408de00f7ff2700838363008703710020
:1015e0000600280003036300070032000700e00044
:1015f00003003a00610160000281730002003200c2
:101600001000b0000180b0000500a6000000060038
:1016100001f0a000000006004f0ade004709de00ce
:10162000f107b200f20fb2000b003200f207b10076
:101630000170a000c708dd00c901de0083807000d2
:101640004700dd000400a600000006006000100056
:10165000e080180000000600810f700001003a00d1
:10166000000006008182cf000500e00010003e006f
:101670008082cf00ee8242007028e1000400390031
:1016800007003e00800078000000eb000e003700ed
:10169000708312008600de000500dd000a003700be
:1016a000708352008600dd000000eb00060037006a
:1016b000e28252008508dd00708312000603de001e
:1016c000868070000500dd007507b0000501ea00a6
:1016d0000400a6000000060060001000e080180072
:1016e00000000600889fbe008a9fbe00841f78000d
:1016f0007c0007004f00780011003300f0ff2f003e
:10170000838f6c0006003b00040565000a00a700fb
:101710000800370009f0a60010002000080037007c
:10172000820f5400838f5c000300390010002000fa
:1017300001003e000000200009f0a7000000ea00c0
:101740004f05be004f04be000000e0000000060090
:10175000881f7800030478000300e00007003d00c4
:1017600060001000e080180060011900e08119009d
:1017700002003b0001f02d000300370004000700c9
:1017800008f0a70001f0a0004f0478000000060058
:10179000889fbe008a9fbe00008270000402710014
:1017a00004827100260032000004be000200be0068
:1017b0006011b8006b092000950220000182cf0063
:1017c0000a0039000541b1000082cf00070039004e
:1017d0000541b1000982cf00040039000541b10084
:1017e0000882cf00010039000541b10005425200d6
:1017f000120032000a003b00828171006101640026
:101800008100d1000080d3008984d3000884d300f4
:101810008b05e8000442e800f7ff3a0007003700b4
:101820000804440089844c0000004800818048007e
:101830008b05e9000442e900f9ff3a0003000700c4
:101840004f05be004f04be000000060081002000ce
:10185000618055000b003d000b00200061fe2f0051
:101860000100e1001d00340082817100610164000b
:101870008904d1000884d3000000e800faff3a0090
:10188000710020006100640003007000020060002d
:101890000900320061044400e0844c000988a5007e
:1018a000050032008b05e8006808e10002003a00fc
:1018b0008904d1000884d300f20f20000258e1000f
:1018c00005003d00c75ddd00f907b20089807500a5
:1018d00008007800000006000bf827008b00780055
:1018e000000005000004be0014fc07000003be0059
:1018f0000405be000200be0010fc0700844f750006
:10190000000006000400fa000001be0003f0a10080
:10191000a4fd200095f42300840f5100858f590009
:101920000e003e00f4ff2f00f5972300840f5100b6
:10193000858f59003a003e000200200003b82700be
:101940001cfc0700e0bf9f00f1bf9f0000002000cb
:1019500001f823000080fa00000006004f0ade00b4
:1019600005002000163d2500b7072400860f510012
:10197000878f59001b003e0036be2c0067012400f3
:10198000860f5100878f59000a003600b2fd2000f3
:10199000930424000400e0000400320005fc07006a
:1019a0005c01070001f0a200eaff3700f8fb070026
:1019b000fbff37000400e00005003200b2fd20000c
:1019c00093fc2300fbfb0700dd010700e1ff37006c
:1019d0000001be00b0fd200091fc2300ecfb0700dd
:1019e000f9ff3700561d2300270e2400860f5100f3
:1019f000878f590014003e00f6dd2e00f70a240000
:101a0000860f5100878f590009003600b2fd200073
:101a1000930c24000400e00003003200e5fb070003
:101a20003c010700cbff3700d9fb0700fcff370064
:101a30000400e0000100320001f0a20042be2c00d0
:101a400063092400e5ff3700f4ff2f00f5f72700b6
:101a5000840f5100858f5900040036000001be003c
:101a60000200be00cafb0700baff3700c2ff2f000a
:101a70000f0141005b010700630160006fb8970030
:101a8000ffb89700e10f510005003200e20f51004e
:101a9000c3ff32000200e000cbff3a00e0ff370056
:101aa00001f0a200c8ff37000400fa00889fbe00c2
:101ab0008a9fbe000203410083834900e00f530068
:101ac000e08f5b000f0032000202be0005f0a100b3
:101ad0000800200009f82700880f5200898f5a005b
:101ae00008003e00a0bf9f00b1bf9f00470dde0071
:101af0000b002000f40f20000a056200840f55003f
:101b000007003a006ffd07000001be008efc0700d1
:101b10004f05be004f04be000080fa000000060022
:101b20000002400081824800840f5300858f5b00d3
:101b300006003900840f5300858f5b00f4ff3a00e4
:101b40006011b8005ffd0700f1ff37000a00e000f8
:101b50004c003a002fbb9700bfbb9700493add000d
:101b6000c732de00850272004932dd00e00f52000c
:101b7000e08f5a003f003d00610215002fbb970027
:101b8000bfbb9700040478000804e9000300330099
:101b90000603430087834b00fbff37000602be00ad
:101ba000471bde00070020000683fb000600e00064
:101bb0003d003a00491cdd00c714de0089047400b2
:101bc0004914dd00e00f5400e08f5c0032003d005e
:101bd000e10313000204be008703e90003003300a1
:101be0000804440089844c00fbff370008015200c0
:101bf00089815a00860f55002f003c00e00f5100ec
:101c0000e08f590004003500e00f5100e08f5900cb
:101c1000cbff32000202be004728de000100200098
:101c2000e00f5000e08f58002e0032000a00e00064
:101c3000300034000000200001f82f0004024000b2
:101c4000858248006150b900c700dd000000200017
:101c500004007000858070006022b8000200280037
:101c6000bfb997008302610000007200818072009a
:101c7000a7ff37000a05e9000402420085824a00f6
:101c8000baff37002fba9700bfba9700f507b20026
:101c90000570a000c2ff37000603e90008044400f5
:101ca00089844c00c7ff37000204be00f907b20068
:101cb0000970a000cdff3700e00f5100e08f590000
:101cc00004003500e00f5100e08f59009cff320006
:101cd0000202be000402420085824a000a05e900b1
:101ce000c2ff37000402420085824a000a05e9006b
:101cf000c9ff3700610515000400be000a05e900b0
:101d0000030033008100d1000080d300fbff3700c7
:101d1000d1ff37000400fa00889fbe000004be0017
:101d20008900780001f0a100a4fd200095f42300b3
:101d3000840f5000858f58001e003e00f4ff2f00d6
:101d4000f5972300840f5000858f580016003e0041
:101d50006000b80003f8270089806100e00f5000a0
:101d6000e08f58000b003a000200200003382000ea
:101d70000800be00d3fc07000001be00c2bf9f00e8
:101d8000d3bf9f000800be004f04be000080fa00d1
:101d9000000006000200200003b827000800be0073
:101da00004fb0700f4ff37000800be00e400070052
:101db000180037004f49de0003002000143d2500c5
:101dc000b5072400840f5000858f58001d003e0089
:101dd00034be2c0065012400840f5000858f58000c
:101de0000e003e000800be000200e000b2fd200030
:101df00093fc230005003200eefa070045000700bf
:101e00000004be0009f0a200deff3700e0fa070080
:101e1000400007000004be00daff37000800be00e3
:101e20000200e000b2fd2000930424000300320011
:101e3000e0fa070001f0a200dcff3700d4fa070047
:101e4000fcff3700541d2300250e2400840f500092
:101e5000858f580017003e00f4dd2e00f50a24009f
:101e6000840f5000858f580009003e000800be0016
:101e70000200e00042be2c00630924000200320090
:101e8000ccfa0700e2ff3700c1fa0700dbff37009a
:101e90000800be000200e000b2fd2000930c240008
:101ea00002003200c3fa0700c0ff3700b8fa07008b
:101eb000beff3700f2ff2f00f3f72700820f50001c
:101ec000838f5800050036000801be000800be00e0
:101ed000affa07000004be00aaff370082ff2f0000
:101ee0000f0141000800be003e00070063016000d2
:101ef0004fb89700dfb89700e10f5100c4ff3200e0
:101f0000e20f5100cbff32000200e000bbff3a00bd
:101f1000a6ff37000400fa00889fbe008a9fbe001b
:101f20008c9fbe000001be0066fc07000004be00de
:101f30000001be0063fc07000005be000200200097
:101f400003f02b000800be005efc0700020020002a
:101f500003f8230097fa07000006be00f2a92a0042
:101f6000a3d223000a00be0056fc07000001be00f9
:101f70000c00be008ffa07000002be0072a129000b
:101f8000c37c23000800be0084bf9f0095bf9f0054
:101f90004cfc0700f243200063ab23007cfa0700ef
:101fa0000006be000a01be000800be0045fc070096
:101fb0000001be000c00be0042fc07000001be0094
:101fc0000fba97009fba97000400be0079fa070085
:101fd0004f06be004f05be004f04be000080fa0051
:101fe000000006000400fa00889fbe008a9fbe0021
:101ff0008c9fbe000006780081047800820678007d
:1020000001f0a100a2fd200093dc2400820f50000b
:10201000838f580023003e0032982f0023f22300c4
:102020008900780027fc07000200200003b4240088
:1020300060fa07000200200003b4240054fa0700ed
:102040000005be00fcf9070000047800a2fd200096
:1020500093fc23000a00be001afc07000001be002a
:102060000c0078008900780049fa07000002be00e1
:10207000325a2800832823000a00be0084bf9f0034
:1020800095bf9f000ffc07000001be000fba97002c
:102090009fba97000400be003dfa0700808ebe0084
:1020a0000b003700f2ff2f00f3f72700820f5000dc
:1020b000838f58000c0036000001780089017800f9
:1020c0008900780032fa0700808ebe000004eb0021
:1020d000080078004f06be004f05be004f04be004a
:1020e0000080fa0000000600890078004c0007001c
:1020f0000005be0032982f0023f22300f1fb0700f9
:102100000200200003f023002afa07005500070010
:10211000000478008efd070032982f0023f2230080
:1021200009fb07000001be000a00be0018fa070004
:102130006000b800a0069800b1069800d7ff3700ed
:102140000400fa00889fbe008a9fbe008c9fbe00dc
:102150000006be000001be00dafb07000004be005e
:102160000001be000c00be00d6fb07000005be004b
:102170000801be000800be00d2fb07000a01be0035
:10218000d0fb07000002be00c2c326006363230029
:102190000800be0084bf9f0095bf9f00c9fb0700d9
:1021a000f27c200003952300f9f907000001be002e
:1021b0000fba97009fba97000400be00c1fb07004a
:1021c0000002be004288280083c023000800be0031
:1021d00084bf9f0095bf9f00bafb0700b2aa2a00e8
:1021e000a3e22300eaf907000a01be00b5fb0700dd
:1021f0000c01be00eff907000001be000fba970006
:102200009fba97000400be00eaf907004f06be001f
:102210004f05be004f04be000080fa00000006001b
:102220000400fa006011b800e2bf9f00f3bf9f00f6
:102230006fbb9700ffbb97000002be00f0ff2f00ae
:10224000f1ff2f00f2ff2f00f3ff270000006200d4
:102250008180620002016300838163000080fa00d4
:10226000000006000003be00b4f907006011b800ca
:102270000470a70007f0a1006509b1001b0032003f
:1022800012003500860220000628e1000800350013
:10229000f3ff2700f2ff2f006110b9000700e000f4
:1022a00018003b00030028006000b8000200050091
:1022b00000004000818048000201490083814900fc
:1022c0008502e900faff3a0008003700f88f420063
:1022d00002003c008000eb00000005008100d100fe
:1022e0000080d3008502e800fcff3a000700e00010
:1022f00004003b0060001000e0801800600119003d
:08230000e08119000000060055
:020000040000fa
:102308000a00fa00270b0700730b07007405070083
:1023180000002000011224005805070035080700b6
:10232800050c0700620507004e0c070012c0b30039
:1023380000002000011a24004a08070022c0b30048
:1023480000002000011a2400460807000000eb00e6
:10235800000f780006003700c20b0700004f9800f6
:1023680068004700110020009a0a07001e0fe800c5
:10237800da0b07009e007800808f5000f6ff3500ca
:10238800803e2000010020001bf807002c0c0700ed
:10239800e14f5000d7003a002d0c0700240c07002d
:1023a800100798001e009000100078008000eb00d5
:1023b8005ef9070032332300330524003ffb070092
:1023c800000178000100780082027800000278009d
:1023d80002002000035824000500780084007800db
:1023e8000000be0056fa0700200798003107980041
:1023f8002e019000be0190000000200081202400e2
:102408004ffa070000017800010078008202780086
:102418000002780002002000030a2400050078006a
:10242800840078000000be0057f90700800178009a
:102438000101780003007800820078000000be00e7
:10244800e08e8800f18e88000e80e8001080e80099
:10245800100078008000eb0034f9070032332300c5
:102468003305240015fb07000001780001007800ff
:10247800820278000002780002002000035824003d
:1024880005007800840078000000be002cfa0700e0
:1024980020079800310798002e019000be01900097
:1024a800000020008120240025fa070000017800a0
:1024b8000100780082027800000278000200200003
:1024c800030a240005007800840078000000be009c
:1024d8002df90700800178000101780003007800d9
:1024e800820078000000be00c08e8800d18e88006f
:1024f8000e80e800410020001080400010007800a5
:102508008000eb0009f9070032332300330524006b
:10251800eafa0700000178000100780082027800da
:10252800000278000200200003582400050078000b
:10253800840078000000be0001fa07002007980018
:10254800310798002e019000be0190000000200085
:1025580081202400faf907000001780001007800c2
:10256800820278000002780002002000030a24009a
:1025780005007800840078000000be0002f907001a
:10258800800178000101780003007800820078005b
:102598000000be00a08e8800b18e88000e80e80082
:1025a8006100200010804000100078008000eb00df
:1025b800def807003233230033052400bffa070092
:1025c800000178000100780082027800000278009b
:1025d80002002000035824000500780084007800d9
:1025e8000000be00d6f907002007980031079800c0
:1025f8002e019000be0190000000200081202400e0
:10260800cff9070000017800010078008202780005
:102618000002780002002000030a24000500780068
:10262800840078000000be00d7f807008001780019
:102638000101780003007800820078000000be00e5
:10264800208f8800318f88000e80e80081002000ec
:1026580010804000100078008000eb00b3f80700fd
:10266800323323003305240094fa07000001780070
:102678000100780082027800000278000200200041
:102688000358240005007800840078000000be008c
:10269800abf9070020079800310798002e01900039
:1026a800be0190000000200081202400a4f907004a
:1026b80000017800010078008202780000027800aa
:1026c80002002000030a2400050078008400780036
:1026d8000000be00acf80700800178000101780016
:1026e80003007800820078000000be00008f880098
:1026f800118f8800a08e8000b18e8000020020001b
:10270800c320240048f807000000e000140034004b
:10271800c08e8000d18e800002002000831c24001f
:1027280041f807000000e0000d003400e08e800052
:10273800f18e800002002000c32024003af8070030
:102748000000e00006003400020ea800032ea800d6
:1027580093eea800034ea800726ea800050037008b
:10276800020ea900032ea90093eea900034ea900aa
:10277800726ea900907380004200de006140600024
:102788000004e000f1fe32003a70ef00effe37007f
:102798000000fa003ad0bf000080fb006100b900d9
:1027a8000201200003002000820f5000838f580090
:1027b8006d003e00000601001700370021003700b9
:1027c8002a00370034003700350037003e00370054
:1027d8003f003700480037004900370053003700f2
:1027e800540037005e003700610037006900370089
:1027f8005d0037005c003700000037000041eb0047
:102808006000b8001707070012c0b3006000b800e6
:1028180014070700620037002c30ef002e30ef005d
:102828000041eb006000b8000e07070012c0b300bb
:102838006000b8000b07070010c0b3003af0b700fb
:10284800570037006281800073818000803e20003d
:1028580001002000800f5100818f59004f00360081
:1028680020c0b3003af0b7004c0037000041eb003d
:1028780000002000011c2400fa06070012c0b30063
:1028880000002000811b2400f606070030c0b300ba
:102898003af0b70042003700440007004000370014
:1028a8000041eb0000002000011a2400ed0607009b
:1028b80012c0b3006000b800ea06070050c0b300b9
:1028c8003af0b70036003700380007003400370008
:1028d8000041eb006000b800e206070012c0b30038
:1028e80000002000011a2400de06070070c0b300b3
:1028f8003af0b7002a0037002c00070028003700fc
:102908000041eb000000200001172400d506070055
:1029180012c0b3000000200001172c00d1060700e8
:1029280090c0b3003af0b7001d0037001f00070041
:102938001b0037000041eb000000200001172c00ad
:10294800c806070012c0b3000000200001172400c9
:10295800c4060700b0c0b3003af0b7001000370053
:10296800120007000e0037003a70ef000c00370025
:102978000041eb006000b800ba06070012c0b300bf
:102988006000b800b7060700d0c0b3003af0b7003f
:1029980003003700000000000100370000000000bd
:1029a800000000000080fa00000006000200fa00a3
:1029b8000040eb00004f7800a08e8000b18e8000b0
:1029c80002002000c320240095f707000000e00063
:1029d80011003d00c08e8000d18e800002002000d2
:1029e800831c240090f707000000e0000a00340070
:1029f800e08e8000f18e800002002000c3202400b9
:102a080089f707000000e0000300340020c0b3008d
:102a1800004f78004d003700a08e8000b18e8000f6
:102a280002002000c32024007ff707000000e00018
:102a380011003400c08e8000d18e8000020020007a
:102a4800831c240078f707000000e0000a00340027
:102a5800e08e8000f18e800002002000c320240058
:102a68006ff707000000e00003003d0010c0b3004e
:102a7800004f780035003700c08e8000d18e80006e
:102a880002002000831c240065f707000000e00016
:102a980003003d0030c0b300004f78002b00370022
:102aa800a08e8000b18e800002002000c320240088
:102ab8005df707000000e00011003400c08e8000c0
:102ac800d18e800002002000831c240056f70700e6
:102ad8000000e0000a003400e08e8000f18e8000e3
:102ae80002002000c32024004ff707000000e00088
:102af800030034000040eb00004f7800130037005b
:102b0800208f8000318f800002002000c320240025
:102b180043f707000000e00003003d0030c0b300a9
:102b2800004f780009003700008f8000118f800067
:102b380002002000c320240039f707000000e0004d
:102b480002003d0030c0b300004f78001e407800fe
:102b58000004e00003003a0020c0b3003cf0b700d6
:102b6800110037001e407800e24f500003003a0081
:102b780040c0b3003cf0b7000b0037001e4078009f
:102b8800e14f500003003a0060c0b3003cf0b700ca
:102b9800050037001e407800e34f500002003a005d
:102ba80080c0b3003cf0b7003cd0bf000080fb0001
:102bb800a1032100914078008180fb008100e90099
:102bc800810f5000020032003cd0bf003af0b7003d
:102bd800000000000080fa00000006000000fa0073
:102be800c301a800dca1ef00dea1ef00c1e1a8004d
:102bf800000000000080fa00000006000000fa0053
:102c0800c305a800dca5ef00dea5ef00c1e5a8001c
:102c1800000000000080fa00000006001000fa0022
:102c2800889fbe008a9fbe0020808000318080007f
:102c3800008088001180880060808000718080009a
:102c48004080880051808800300e80008000eb00b2
:102c5800008fbe00500e80008000eb00c000dd0039
:102c6800000020001e0f40005e974800302e8000b4
:102c78008000eb002007980031079800502e800054
:102c88008000eb00c000dd00000020006401470068
:102c9800e4014700331940002391480012027800ec
:102ca8009202900024079800350798001e007800cb
:102cb8009e0090001af70700c2532e007378230075
:102cc800fef8070000017800010078008201780012
:102cd80000017800030078008200780020808800d6
:102ce800318088002e009000be0090000cf707008d
:102cf800c2532e0073782b00f0f80700000178000b
:102d08000100780082017800000178000300780053
:102d180082007800608088007180880024808000ac
:102d28003580800000808000118080000001be0096
:102d38000400be0014f707000001780001007800c5
:102d48008201780000017800030078008200780092
:102d5800a0808800b1808800648080007580800031
:102d680040808000518080000001be000400be0049
:102d780005f707000001780001007800820178005b
:102d880000017800030078008200780080808800c5
:102d980091808800a0808000b1808000020020001f
:102da800832c2400c5f80700800178000101780011
:102db80003007800820078000000be00408f880081
:102dc800518f880080808000918080000200200060
:102dd800832c2400b9f807008001780001017800ed
:102de80003007800820078000000be00608f880031
:102df800718f8800448f8000558f8000608f80001d
:102e0800718f80000001be000400be00e7f60700d5
:102e18000001780001007800820278000002780042
:102e280002002000030024000500780084007800d8
:102e38000000be00c2f70700800178000101780099
:102e480003007800820078000000be0040908800ef
:102e580051908800448f8000558f8000608f8000db
:102e6800718f80000001be000400be00c6f6070096
:102e780000017800010078008202780000027800e2
:102e8800b2f12200d3e52300050078008400780021
:102e98000000be00aaf70700800178000101780051
:102ea80003007800820078000000be00609088006f
:102eb80071908800e08f8000f18f8000808f8800fb
:102ec800918f88000090800011908000a08f88006a
:102ed800b18f88002090800031908000c08f8800da
:102ee800d18f8800888f8000998f80004a90800059
:102ef8005b90800022908000339080004207980009
:102f080053079800609080007190800002002000b4
:102f1800832c24008af7070000017800010078005c
:102f280082027800000278000200200003002400da
:102f380005007800840078000000be0080f70700d4
:102f48000001780001007800820178000001780013
:102f580003007800820078000001be004e00900057
:102f6800de00900091f6070000017800010078006b
:102f78008201780000017800030078008200780060
:102f88000000be005dfa07000001be000a00be0096
:102f98004af80700000178000100780082027800f2
:102fa8000002780002002000832c2400050078002d
:102fb800840078000000be0061f707000001780077
:102fc8000100780082017800000178000300780091
:102fd800820078000001be000800be0073f60700fa
:102fe80080017800010178000300780082007800f1
:102ff8000000be00e08f8800f18f8800a88f800055
:10300800b98f80004a9080005b90800024908000f7
:1030180035908000640798007507980060908000dc
:103028007190800002002000832c240044f70700e0
:103038000001780001007800820278000002780020
:1030480002002000030024000500780084007800b6
:103058000000be003af70700000178000100780080
:10306800820178000001780003007800820078006f
:103078000001be006e009000fe0090004bf60700b5
:1030880000017800010078008201780000017800d2
:1030980003007800820078000000be001bfb0700d8
:1030a8000001be000a00be0004f807000001780015
:1030b80001007800820278000002780002002000f7
:1030c800832c240005007800840078000000be00ee
:1030d8001bf70700000178000100780082017800e2
:1030e8000001780003007800820078000001be002b
:1030f8000800be002df60700800178000101780065
:1031080003007800820078000000be00009088006c
:1031180011908800c88f8000d98f8000609080004f
:103128007190800002002000832c240004f707001f
:103138000001780001007800820178000001780021
:1031480003007800820078000001be000800be007d
:1031580016f6070080017800010178000300780066
:10316800820078000000be0020908800319088001e
:103178002090800031908000b2fd2000930424004c
:10318800a9f507000000e0000c0034002090800042
:1031980031908000b2fd2000930c2400faf507005e
:1031a800800178000101780003007800820078002f
:1031b8000000be0020908800319088002090800098
:1031c80031908000b2fd200093042c0094f5070094
:1031d8000000e000010035000c003700209080005e
:1031e80031908000b2fd2000930c2400eff5070019
:1031f80080017800010178000300780082007800df
:103208000000be0020908800319088000000000077
:103218004f05be004f04be000080fa000000060003
:103228001800fa0060818000718180000001780038
:10323800810178008000eb000e0078000d06070081
:10324800e08f8000f18f80000001be004100200067
:103258000e007800ea0507000090800011908000b9
:103268000001be00810020000e007800e405070080
:1032780020908000319080000001be00c100200035
:103288000e007800de050700409080005190800015
:103298000001be00010120000e007800d8050700db
:1032a80060908000719080000001be004101200004
:1032b8000e007800d20507000e0178008101200079
:1032c80020062000d6010700000000000080fa0058
:1032d800000006000400fa00008fbe0020088000ed
:1032e8000040a1000050a100200888001e017800bd
:1032f8009e019000001c2e0041c6240090f6070095
:10330800000178000100780082027800000278004d
:1033180002f02f00f377240005007800840078007d
:103328000000be0040f507000000e0008d003400fa
:10333800200880000040a0000050a100200888005c
:103348001e0178009e019000001c2e0041c624003a
:103358007bf60700000178000100780082027800ff
:103368000002780002002000031024000500780005
:10337800840078000000be0071f6070000017800a4
:1033880001007800820278000002780002f02f0025
:10339800f377240005007800840078000000be0060
:1033a80021f507000000e0005500340020088000e7
:1033b8000040a1000050a000200888001e017800ed
:1033c8009e019000001c2e0041c624005cf60700f8
:1033d800000178000100780082027800000278007d
:1033e80002002000032824000500780084007800eb
:1033f8000000be0052f607000001780001007800c6
:10340800820278000002780002f02f00f37724008f
:1034180005007800840078000000be0002f507006f
:103428000000e0001d003400200880000040a000db
:103438000050a000200888001e0178009e0190001e
:10344800001c2e0041c624003df60700000178004c
:103458000100780082027800000278000200200053
:103468000338240005007800840078000000be00be
:1034780033f6070000017800010078008201780027
:103488000001780003007800820078000000be0088
:10349800e7f4070010088800400037001e01780094
:1034a8009e019000001c2e0041c6240024f607004f
:1034b800000178000100780082027800000278009c
:1034c800020020000328240005007800840078000a
:1034d8000000be001af6070000017800010078001d
:1034e80082017800000178000300780082007800eb
:1034f8000000be00cef4070010088800270037003f
:103508001e0178009e019000001c2e0041c6240078
:103518000bf60700000178000100780082027800ad
:103528000002780002002000031024000500780043
:10353800840078000000be0001f607000001780052
:10354800010078008201780000017800030078000b
:10355800820078000000be00b5f40700100888005b
:103568000e0037001e0178009e019000001c2e00fe
:1035780041c62400f2f50700000178000100780038
:10358800820178000001780003007800820078004a
:103598000000be00a6f40700100888000000000024
:1035a8000080fa00000006000400fa00008fbe0048
:1035b800f00880000040a1000050a100f008880039
:1035c8001e0178009e019000001c2e0041c62400b8
:1035d800dbf507000001780001007800820278001e
:1035e8000002780002f02f00f3772400050078002d
:1035f800840078000000be008bf407000000e000a3
:103608008d003400f00880000040a0000050a100a8
:10361800f00888001e0178009e019000001c2e0012
:1036280041c62400c6f507000001780001007800b3
:1036380082027800000278000200200003102400b3
:1036480005007800840078000000be00bcf5070083
:1036580000017800010078008202780000027800fa
:1036680002f02f00f377240005007800840078002a
:103678000000be006cf407000000e00055003400b4
:10368800f00880000040a1000050a000f008880069
:103698001e0178009e019000001c2e0041c62400e7
:1036a800a7f5070000017800010078008202780081
:1036b800000278000200200003282400050078009a
:1036c800840078000000be009df507000001780026
:1036d80001007800820278000002780002f02f00d2
:1036e800f377240005007800840078000000be000d
:1036f8004df407000000e0001d003400f0088000d1
:103708000040a0000050a000f00888001e017800ca
:103718009e019000001c2e0041c6240088f5070079
:103728000001780001007800820278000002780029
:103738000200200003382400050078008400780087
:103748000000be007ef50700000178000100780047
:103758008201780000017800030078008200780078
:103768000000be0032f40700d0088800400037008f
:103778001e0178009e019000001c2e0041c6240006
:103788006ff50700000178000100780082027800d8
:1037980000027800020020000328240005007800b9
:1037a800840078000000be0065f50700000178007d
:1037b8000100780082017800000178000300780099
:1037c800820078000000be0019f40700d0088800c5
:1037d800270037001e0178009e019000001c2e0073
:1037e80041c6240056f50700000178000100780062
:1037f80082027800000278000200200003102400f2
:1038080005007800840078000000be004cf5070031
:10381800000178000100780082017800000178003a
:1038280003007800820078000000be0000f4070062
:10383800d00888000e0037001e0178009e01900015
:10384800001c2e0041c624003df507000001780049
:1038580001007800820178000001780003007800f8
:10386800820078000000be00f1f30700d00888004d
:10387800000000000080fa00000006000400fa00c2
:10388800008fbe001e0078009e00900091fe070089
:1038980005e1a9000421a9000068a9002068a80082
:1038a80005e1a800000000000080fa000000060002
:1038b8000000fa0000002000a13724003aff0700aa
:1038c8001fe1a9001e21a9000368a9002368a80018
:1038d8001fe1a800000000000080fa0000000600b8
:1038e8000000fa0013e1a90011e1a9001061a80085
:1038f8001021a900800880000040a1000050a1000c
:10390800800888000a21ef000621ef0030392000e6
:103918007008880000702800600888002042800035
:103928000000a0000010a1000020a1002042880093
:103938000108a9002108a80011e1a8000000000062
:103948000080fa00000006000a00fa00200798002c
:1039580031079800420798000040eb00004f7800bc
:103968009e407800e0cfb30000c06800004f7800a8
:103978002e0090004880de00804078001e407800cd
:1039880000c06800004f78002e009000804078004a
:103998001e40780000c06800004f78003e0090008c
:1039a8004880de00804078001e40780000c0680033
:1039b800004f78003e009000804078001e4078005c
:1039c80000c06800004f78000000eb001007980066
:1039d8000c0037001e009000e8004700110040006e
:1039e800104078009e40780000c06800004f7800c2
:1039f8000e80e8008e80e8001108e800900078004a
:103a0800110798009e0090003e009000808f5000a3
:103a1800f0ff35001e4078000080fa000000060024
:103a28000e00fa00889fbe004007980051079800d2
:103a3800620798000f0478000f007800800478006f
:103a48006a00470061002000108040008000e90003
:103a5800110798000000e8000000d1008000400035
:103a68000f00780081874700600040002007980019
:103a78002e009000e1cfb300014878004e0090007e
:103a88004880de00804078002e00900011409800a9
:103a98004e009000804078002e0090002140980051
:103aa8005e0090004880de00804078002e00900084
:103ab800314098005e009000804078002e00900011
:103ac8004140980050002000000f7800090037009e
:103ad8001e00780065005000ec004700110040000f
:103ae800904078002e0090001e00400001487800a9
:103af8001e0fe8006a004700420020001000410045
:103b08009e007800808f5000f1ff34006e01900015
:103b1800de0090004e0090008bff07006047980081
:103b28006a0047005100200010804000ee409000dd
:103b38002e01900000004100014878006a0047000b
:103b480062002000900041002e009000a1040700b0
:103b58008907780000000000880778004f04be003d
:103b68000080fa00000006000600fa00000f780046
:103b78001107980022079800000220009e00780094
:103b8800808f50006d003a00640047001000e80084
:103b98009040780010c3b30080cf500010003a0066
:103ba800640047001080e8009040780010c3b3001c
:103bb80080cf500002003a00032ea8005f003700b3
:103bc800640047001080e8009040780000c3b3000c
:103bd80080cf500059003a00032ea9005700370043
:103be800640047001000e8009040780020c3b3004c
:103bf80080cf500010003a00640047001080e800b1
:103c08009040780010c3b30080cf500002003a0003
:103c180093eea80049003700640047001080e800d0
:103c28009040780000c3b30080cf500043003a00b2
:103c380093eea90041003700640047001000e80037
:103c48009040780030c3b30080cf500010003a0095
:103c5800640047001080e8009040780010c3b3006b
:103c680080cf500002003a00034ea800330037000e
:103c7800640047001080e8009040780000c3b3005b
:103c880080cf50002d003a00034ea9002b003700ca
:103c9800640047001000e8009040780040c3b3007b
:103ca80080cf500010003a00640047001080e80000
:103cb8009040780010c3b30080cf500002003a0053
:103cc800726ea8001d003700640047001080e800ed
:103cd8009040780000c3b30080cf500017003a002e
:103ce800726ea90015003700640047001000e80054
:103cf8009040780000c3b30080cf50000f003a0016
:103d0800640047001080e8009040780010c3b300ba
:103d180080cf500002003a00020ea80007003700ca
:103d2800640047001080e8009040780000c3b300aa
:103d380080cf500001003a00020ea90000042000c4
:103d48009e007800808f500004003a00640047000d
:103d58001000e800104078000004e00000000000b7
:103d68000080fa00000006000200fa00004f780008
:103d780000818000e30f500026003200e30f50005e
:103d880005003e00e10f500011003200e10f500025
:103d980017003e0007003700e50f500032003200e0
:103da800e50f500021003900e60f50003d003200b9
:103db800520037002030ef001e407800e24f4000ec
:103dc80049003a00100020000081880046003700b2
:103dd8001e80fb004800dd00d1808000008070005c
:103de800d080880020002000008188004300370030
:103df8001e80fb00d180800000807000d080880089
:103e0800d0808000d08088003000200000818800a9
:103e18003a0037001e80fb004800dd00e080880083
:103e28004000200000818800340037001e80fb001d
:103e3800e180800000807000e0808800e0808000e1
:103e4800e0808800e08080000000e000030034008b
:103e58005000200000818800280037006000200002
:103e68000081880025003700f08080000000e8000d
:103e7800f0808800f18080002014210001004000bb
:103e88001e487800f1808000e0808000808f50001c
:103e9800170035001e30ef00600020000081880008
:103ea80013003700e1808000d080800022142100b8
:103eb800a5fe070018f0b70018d0bf009e40780094
:103ec80080cf50000c003a002030ef00e1808000e5
:103ed800d08080002214210023ff07001a30ef0051
:103ee8001c30ef000400370000000000030037001a
:103ef8000000000001003700000000000000000082
:103f08000080fa00000006000e00fa00000f78009a
:103f1800120798002307980034079800450798006f
:103f280056079800670798001e0078001e01900049
:103f3800ae0190000288be001e0078003e0190008d
:103f4800ce01900022009800330098001e007800ef
:103f58005e019000ee019000420098005300980026
:103f68001e0078003eb99700ceb99700620098000d
:103f7800730098001e0078001eb99700aeb997002c
:103f880002089800130898001e0078007eb1970078
:103f98008eb9970022089800330898001e0178000f
:103fa8006000b80040099800510998001e01780087
:103fb8006000b80060099800710998001e01780037
:103fc8006000b80000119800111198001e017800d7
:103fd8006000b80020119800311198001e01780087
:103fe8006000b80040119800511198001e01780037
:103ff8006000b8006011980071119800000000007e
:104008000080fa00000006001200fa00889fbe0037
:104018006007980072079800030f98006e009000e0
:104028007e0190008e0990000210980013109800ed
:104038006e00900060029000f00290006e00900008
:1040480090009000100078000001be000400be003f
:104058003bf3070000017800010078008204780033
:10406800000478006e009000f0009000600090005e
:1040780001f0a2006e0190009201900012017800f8
:104088002ff3070000017800010078008201780012
:104098000001780009007800880078000002be005e
:1040a80003007800820078000001be007e009000c6
:1040b8008e089000ed020700008fbe006e00900091
:1040c80090009000100078001e0178009e0190007a
:1040d800faf30700800178000101780003007800f6
:1040e800820078000001be006e0090002210980047
:1040f800331098006e009000400c9000d00c900097
:1041080002002000832c24007e0090008e0890007e
:104118000bf30700000178000100780082017800a5
:104128000001780003007800820078000001be00da
:104138000800be001df20700800178000101780028
:1041480003007800820078000001be006e00900035
:1041580042089800530898006e009000000a9000ea
:10416800900a90006e009000b0009000200090002f
:104178000001be000400be00f1f207000001780053
:104188000100780082047800000478006e00900036
:10419800900890000008900001f0a2006e019000c5
:1041a800b201900022019000e5f2070000017800ba
:1041b8000100780082017800000178006e0090000c
:1041c800400b9000d00b9000090078008800780020
:1041d8000002be0003007800820078000001be00e3
:1041e8000600be00a10207000001be006e0090009c
:1041f80042089800530898006e009000400a90000a
:10420800d00a90006e009000b0009000200090004e
:104218000001be000400be00a8f30700800178007a
:104228000101780003007800820078000001be00d8
:104238006e00900042109800531098006e00900095
:10424800f0089000600890000001be007e00900019
:104258008e089000ccf1070000017800010078007a
:10426800820278000002780002002000832c2400db
:1042780005007800840078000000be008ff3070076
:1042880020079800310798006e009000200a9000df
:10429800b00a90006e009000d0009000400090009e
:1042a8000001be000400be00a5f20700000178006e
:1042b8000100780082047800000478006e00900005
:1042c800b00890002008900001f0a2006e01900054
:1042d800d20190004201900099f207000001780095
:1042e8000100780082017800000178000900780058
:1042f800880078000002be00030078008200780081
:104308000001be002e009000be009000570207007a
:1043180040079800510798006e0090007e019000b9
:104328008e09900062089800730898006e0090004b
:10433800d0009000400090004e019000de019000f7
:104348005ef307008001780001017800030078001f
:10435800820078000001be006e0090006210980094
:10436800731098006e00900020129000b012900018
:104378006e009000d0109000401090000001be0028
:104388000400be0089f107000001780001007800f0
:1043980082027800000278006e009000f010900011
:1043a800601090000001be000500780084007800cd
:1043b8000000be007df107000001780001007800d0
:1043c80082007800810178000001780003007800fd
:1043d800820078000000be004f04be000080fa0092
:1043e800000006000000fa00000000000080fa004b
:1043f800000006000000fa0002ccbf000000a10087
:104408000010a1000020a10002ecb70000962000d7
:10441800206088001061800000a0a00000b0a0000b
:104428001061880023cca80023eca80030002000ed
:10443800206188001062800000a0a00000b0a000e9
:104448001062880043cca80043eca800300020008c
:104458002062880001eca800000000000080fa003b
:10446800000006000600fa00008fbe0042479800d0
:104478004e4090000004e000060032001e00780064
:104488009e00900001f0a200608e8800718e880066
:10449800040037001e0178009e019000228e8800db
:1044a800338e8800000000000080fa00000006003b
:1044b8000000fa00889fbe00848e8000958e8000e0
:1044c800608e8000718e80000001be000400be0076
:1044d800d3f007000000e00014003d00688e800063
:1044e800798e8000848e8000958e800030818000d7
:1044f800418180000001be000400be002bf10700ce
:10450800000178000100780082027800000278003b
:104518000801be0005007800840078000000be0095
:10452800bb010700808e8800918e8800848e8000f1
:10453800958e8000608e8000718e80000001be0024
:104548000400be00b8f007000000e00014003400ca
:10455800688e8000798e8000848e8000958e800021
:1045680030818000418180000001be000400be004f
:1045780005f1070000017800010078008202780048
:10458800000278000801be00050078008400780069
:104598000000be0087010700808e8800918e880089
:1045a800808e8000918e80006011b8009ef0070018
:1045b8000000e0001e003500808e8000918e800093
:1045c80002002000031c2400bcf207000001780050
:1045d80001007800820278000002780010818000d3
:1045e800218180000001be00050078008400780069
:1045f8000000be00edf0070000017800010078001f
:1046080082017800000178000300780082007800b9
:104618000000be00a7f007007061880010818000cc
:1046280021818000a3f00700306188001e00370058
:1046380010818000218180009ef007007061880051
:10464800808e8000918e800001f0a2000200200080
:10465800031c240099f2070000017800010078008b
:104668008202780000027800108180002181800099
:104678000001be0005007800840078000000be003c
:10468800caf0070000017800010078008201780074
:104698000001780003007800820078000000be0066
:1046a80084f0070030618800448e8000558e8000b9
:1046b800208e8000318e80000001be000400be0004
:1046c80057f007000000e00014003d00288e80002d
:1046d800398e8000448e8000558e800030818000a5
:1046e800418180000001be000400be00aff0070059
:1046f800000178000100780082027800000278004a
:104708000801be0005007800840078000000be00a3
:104718003f010700408e8800518e8800448e80003b
:10472800558e8000208e8000318e80000001be00f2
:104738000400be003cf007000000e0001400340054
:10474800288e8000398e8000448e8000558e80002f
:1047580030818000418180000001be000400be005d
:1047680089f00700000178000100780082027800d3
:10477800000278000801be00050078008400780077
:104788000000be000b010700408e8800518e880093
:10479800408e8000518e80006011b80022f0070022
:1047a8000000e0001e003400408e8000518e800022
:1047b80002002000031c240040f2070000017800da
:1047c80001007800820278000002780010818000e1
:1047d800218180000001be00050078008400780077
:1047e8000000be0071f007000001780001007800a9
:1047f80082017800000178000300780082007800c8
:104808000000be002bf00700706288001081800055
:104818002181800027f00700306288001e003700e1
:10482800108180002181800022f0070070628800da
:10483800408e8000518e800001f0a200020020000e
:10484800031c24001df20700000178000100780015
:1048580082027800000278001081800021818000a7
:104868000001be0005007800840078000000be004a
:104878004ef00700000178000100780082017800fe
:104888000001780003007800820078000000be0074
:1048980008f0070030628800000000004f04be00e6
:1048a8000080fa00000006000800fa0020079800bf
:1048b80031079800b2fd2000930424002e009000d8
:1048c800be00900030f00700000178000100780079
:1048d8008202780000027800b2fd2000930c2400c8
:1048e80005007800840078000000be006cf4070022
:1048f800b2fd2000930424002cf00700008fbe00b6
:10490800b2fd2000930424001e0078009e00900051
:1049180026f0070000017800010078008202780084
:1049280000027800b2fd2000930c240005007800f6
:10493800840078000000be0059f40700b2fd200092
:104948009304240010f007000001780001007800ab
:104958008200780081017800000178000300780067
:10496800820078000000be000080fa000000060007
:104978000a00fa0030079800410798004e0090009e
:10498800e6004700110f40001e0078001001780073
:104998009001900012079800230798009e0090004d
:1049a8002e00900081017800000178000300780053
:1049b800820078000000be000080fa0000000600b7
:1049c8000600fa0010079800210798002e009000b2
:1049d8008e80e800110f40001e00780090007800db
:1049e8001000900081017800000178000300780031
:1049f800820078000000be000080fa000000060077
:104a08000c00fa0020079800310798004207980028
:104a1800530798000e80e800680847009000780067
:104a2800110798000000eb00000f78000b0037001a
:104a38001e0078008e80e800910040006600470064
:104a4800100178001e004100640147001200400078
:104a580091407800014878001e0fe8001e00780099
:104a6800e30f5000f2ff3400000000000080fa005d
:104a7800000006000c00fa00200798003107980093
:104a880042079800530798000e80e800680847001e
:104a980090007800110798000000eb00000f7800e4
:104aa8000c003700300020001e0050008e80e80007
:104ab8009100400066004700100178001e00410088
:104ac80064014700120040009140780001487800d6
:104ad8001e0fe8001e007800e30f5000f1ff3400bd
:104ae800000000000080fa00000006000c00fa0038
:104af800200798003107980042079800530798004c
:104b08000e80e800680847009000780011079800b8
:104b18000000eb00000f78000b0037001e00780043
:104b28008e80e80091004000660047001001780080
:104b38001e004100640147001200400091407800c7
:104b4800014878001e0fe8001e007800e70f5000ab
:104b5800f2ff3400000000000080fa0000000600a8
:104b68000400fa00008fbe006011b8001e00780033
:104b78009e0090002cef07000000e00003003500c5
:104b88001e0078009e009000030037001e00780089
:104b98009e00900001f0a2008001780001017800d9
:104ba80003007800820078000000be000080fa0050
:104bb800000006000800fa00008fbe0022079800d7
:104bc800330798002e019000be0190001e00780067
:104bd8009e00900014ef07000000e000030034007e
:104be8009e0078001e00900002003700ae00900082
:104bf8003e009000810178000001780003007800f1
:104c0800820078000000be000080fa000000060064
:104c18000800fa00008fbe002207980033079800aa
:104c28002e019000be0190001e0078009e009000aa
:104c3800fbee07000000e00003003d009e00780046
:104c48001e00900002003700ae0090003e00900069
:104c58008101780000017800030078008200780064
:104c68000000be000080fa00000006000c00fa00f8
:104c7800008fbe0022079800330798004407980069
:104c8800550798004e019000de0190001e00780044
:104c98009e009000e4ee07000000e00004003400ed
:104ca8004e019000de019000028fbe000a0037001e
:104cb8002e019000be0190001e0078009e0090001a
:104cc800d7ee07000000e00003003d002e01900031
:104cd800be019000028fbe009e0078001e0090006a
:104ce80081017800000178000300780082007800d4
:104cf8000000be000080fa00000006000400fa0070
:104d0800008fbe00b2fd2000930424001e0078002e
:104d18009e0090000af0070000017800010078006a
:104d28008202780000027800020020004333240049
:104d380005007800840078000000be00dff007005e
:104d48000001780001007800820078008101780075
:104d58000001780003007800820078000000be009f
:104d68000080fa00000006000400fa00008fbe0070
:104d7800b2fd2000930424001e0078009e009000dd
:104d8800cef0070000017800010078008202780068
:104d98000002780002002000433324000500780058
:104da800840078000000be00e5ef070000017800ed
:104db8000100780082007800810178000001780005
:104dc80003007800820078000000be000080fa002e
:104dd800000006000600fa00100798002107980056
:104de8000040eb00004f78005d000700ae00900027
:104df800808f500013003c000040eb00004f78000b
:104e0800080037001e80fb008e80e800110040007b
:104e1800104078000e0007001e4078000040e800af
:104e2800004f78001e80fb00ae009000808f50007d
:104e3800f4ff3c00340007000004e00001003a00e1
:104e48004e000700000000000080fa000000060085
:104e58000400fa0020479800808180008000e80064
:104e6800f0072800008060000000e00004003d001a
:104e78000000e90001f82f00008070000000e80041
:104e8800000f7800908180009e007800808f50008d
:104e980007003200818180002004210001004000c9
:104ea800ae409000014878009e007800818188001b
:104eb800000000000080fa00000006000200fa006e
:104ec800918180002004210001004000104f7800eb
:104ed800908180008000e800f007280000806000d2
:104ee8000000e00004003d000000e90001f82f0088
:104ef800008070000000e800908188001e40780063
:104f08000080fa00000006000000fa0034d0bf005c
:104f18000080fa00000006000200fa00818180008b
:104f280090818000008050000108200080804000af
:104f3800f0072800008060000000e00004003d0049
:104f48000000e90001f82f00008070000000e80070
:104f5800000f78001e0078000080fa0000000600ac
:104f68000000fa00ecff070080007800f00720003e
:104f7800010050000080fa00000006000200fa005c
:104f880010c0b30034f0b700ccff0700004f780022
:104f98001e80fb0020118800000000000080fa003d
:104fa800000006000000fa0081742000914078009b
:104fb80000ccb30000c060007041b30048e7b70000
:104fc800313a800000e02f008080600080052000da
:104fd80001007000303a8800203a80000060a1008b
:104fe8000070a100203a8800213a800000fe2f00be
:104ff800008060000000a000203a88001200200015
:1050080080072000a109200033742000804978001f
:105018008149780082497800103a800000017800c0
:105028000200a00060042000710520002374200005
:1050380080497800814978008249780000000000a2
:10504800103a80004c00de0067406000e14f5000dd
:10505800fbff3a005927a800c03a80000000a000d2
:105068000010a1000020a100c03a88005ac7bf0064
:105078000000a0000010a0000020a0005ae7b70020
:10508800c03a80000050a1000060a0000070a0009d
:10509800c03a880059a7a80059e7a80000000000f6
:1050a800c03a80004e00de0061406000e14f5000d1
:1050b800fbff3a0000000000103a80004500de00c7
:1050c80061406000e14f5000fbff3a000000000023
:1050d8000080fa00000006000000fa000e2eef0023
:1050e8001e2eef003e2eef002e2eef004e2eef006c
:1050f8006e2eef000136800000f82f0080806000df
:10510800100620000100700000368800013680007b
:10511800f00f280080806000000026000100700069
:1051280000368800e135800000f82f00808060009c
:105138006004200001007000e0358800e13580003f
:10514800f00f2800808060000050240001007000eb
:10515800e035880080cea90080aea900808ea90025
:10516800816ea900714ea900014ea90091eea90017
:10517800012ea900000ea900706ea90018000700f2
:105188002136800000f82f00008060002001b30065
:10519800203688008134800000fc2f0000806000e9
:1051a8000000a00080348800030007000000000011
:1051b8000080fa00000006000000fa0021742000b8
:1051c8006204200073052000824878008348780034
:1051d80042c7a800000000000080fa000000060096
:1051e8000000fa00217420006204200073052000ea
:1051f800824878008348780042c7a9000000000070
:105208000080fa00000006000200fa00004f780053
:10521800420007000000e0000f003400b181800068
:10522800200c2100010040001e487800b081800059
:105238008000e800f0072800008060000000e0001f
:1052480004003d000000e90001f82f000080700014
:105258000000e800b0818800000000000080fa002b
:10526800000006000200fa00c1818000200c210025
:1052780001004000104f7800c08180008000e800e5
:10528800f0072800008060000000e00004003d00f6
:105298000000e90001f82f00008070000000e8001d
:1052a800c08188001e4078000080fa0000000600d7
:1052b8000000fa00b1818000c08180000080680091
:1052c80000f0a7000000ea000000ea004f00de003e
:1052d800004078000080fa00000006000000fa0094
:1052e800b1818000c081800000805000010820004a
:1052f80080804000f0072800008060000000e00087
:1053080004003d000000e90001f82f000080700053
:105318000000e8000080fa00000006000000fa0023
:10532800eeff070080007800f00720000100500021
:105338000080fa00000006000000fa0021e3a9003e
:105348002143a800001980000080a1000090a1005e
:10535800001988002043a900001980000050a0000f
:105368000060a0000070a0000019880010198000db
:1053780000d0a10000e0a10000f0a10010198800f1
:105388002343a800101980000080a1000090a1000c
:10539800101988001119800030f82f000080600073
:1053a8000040a000101988002203a9002223a900a8
:1053b80025e3a900f0c0b30024e3b7002119800059
:1053c800f00f2e008080600000f0200001007000c7
:1053d800201988003303a9001f0ea8001f2ea8005b
:1053e8001f4ea8003103a8003123a8003143a800ac
:1053f8004119800000fe2f000080600040198800dd
:1054080028e3a90001a8a90021a8a80021e3a80071
:10541800000000000080fa00000006000000fa000a
:105428002023a800000000000080fa000000060009
:105438000000fa00002221000080fa0000000600a7
:105448000000fa003fd0bf000080fa00000006000c
:105458000000fa003f70ef00000000000080fa0032
:10546800000006000000fa002002a90000118000d8
:105478000010a1000020a1000011880020a2a900ae
:105488002062a800100820004011880023a2a9006b
:1054980023e2a9000188a9002188a80021e2a80028
:1054a8002342a800000000000080fa000000060067
:1054b8000600fa0010079800210798000040eb004a
:1054c800004f78000040eb00004f780011003700d3
:1054d80000000000101180004900de0061406000fb
:1054e8000004e000fbff3a009e0090000e80e800f8
:1054f8000108e800100178001207980011407800b0
:105508000080fb00201188001e4078000040e80061
:10551800004f78001e80fb00ae009000808f500086
:10552800ebff3c00000000000080fa0000000600cd
:020000040000fa
:105538003a10000002000000820000001000000085
:105548003c10000002000000800000002a1000004b
:105558000600000080000000c21100005e0000008c
:1055680080000000221000000800000082000000f7
:105578000000480042000000a04000002012000087
:105588000a000000800000003e1000000200000039
:105598008000000042100000800000008000000031
:1055a800301000000600000080000000c21000005b
:1055b8008000000080000000361000000400000099
:1055c8008000000042110000800000008000000000
:1055d800181000000a000000800000000010000001
:1055e80018000000800000004010000002000000c9
:0855f80080000000000000002b
:020000040000fa
:0200000401f009
:04000800cfffff0027
:020000040000fa
:0200000401f009
:04000c00f9ffff00f9
:020000040000fa
:0200000401f009
:040010005bffff0093
:020000040000fa
:0200000401f009
:040014007fffff006b
:020000040000fa
:0200000401f009
:04001800cfffff0017
:020000040000fa
:0200000401f009
:04001c00deffff0004
:020000040000fa
:0200000401f009
:04002000cfffff000f
:00000001FF
