:020000040000fa
:080000000002040000000000f2
:020000040000fa
:0400080032040000be
:020000040000fa
:04000c0032040000ba
:020000040000fa
:0400100032040000b6
:020000040000fa
:0400140032040000b2
:020000040000fa
:0400180032040000ae
:020000040000fa
:04001c0032040000aa
:020000040000fa
:0400200032040000a6
:020000040000fa
:0400240032040000a2
:020000040000fa
:04002800320400009e
:020000040000fa
:04002c00320400009a
:020000040000fa
:040030003204000096
:020000040000fa
:04003400fa020000cc
:020000040000fa
:04003800320400008e
:020000040000fa
:04003c00320400008a
:020000040000fa
:040040003204000086
:020000040000fa
:040044003204000082
:020000040000fa
:04004800460300006b
:020000040000fa
:04004c00320400007a
:020000040000fa
:040050003204000076
:020000040000fa
:04005400ea030000bb
:020000040000fa
:04005800be030000e3
:020000040000fa
:04005c009803000005
:020000040000fa
:040060003204000066
:020000040000fa
:040064003204000062
:020000040000fa
:04006800320400005e
:020000040000fa
:04006c00320400005a
:020000040000fa
:040070003204000056
:020000040000fa
:040074003204000052
:020000040000fa
:04007800320400004e
:020000040000fa
:04007c00320400004a
:020000040000fa
:040080003204000046
:020000040000fa
:040084003204000042
:020000040000fa
:04008800320400003e
:020000040000fa
:04008c00320400003a
:020000040000fa
:040090003204000036
:020000040000fa
:0400940066030000ff
:020000040000fa
:04009800320400002e
:020000040000fa
:04009c00320400002a
:020000040000fa
:0400a0003204000026
:020000040000fa
:0400a4003204000022
:020000040000fa
:0400a800320400001e
:020000040000fa
:0400ac00320400001a
:020000040000fa
:0400b0003204000016
:020000040000fa
:0400b4003204000012
:020000040000fa
:0400b800320400000e
:020000040000fa
:0400bc00320400000a
:020000040000fa
:0400c0003204000006
:020000040000fa
:0400c4003204000002
:020000040000fa
:0400c80032040000fe
:020000040000fa
:0400cc0032040000fa
:020000040000fa
:0400d00032040000f6
:020000040000fa
:0400d40032040000f2
:020000040000fa
:0400d80032040000ee
:020000040000fa
:0400dc0032040000ea
:020000040000fa
:0400e00032040000e6
:020000040000fa
:0400e40032040000e2
:020000040000fa
:0400e80032040000de
:020000040000fa
:0400ec0032040000da
:020000040000fa
:0400f00032040000d6
:020000040000fa
:0400f40032040000d2
:020000040000fa
:0400f80032040000ce
:020000040000fa
:0400fc0032040000ca
:020000040000fa
:0401000032040000c5
:020000040000fa
:0401040032040000c1
:020000040000fa
:0401080032040000bd
:020000040000fa
:04010c0032040000b9
:020000040000fa
:0401100032040000b5
:020000040000fa
:0401140032040000b1
:020000040000fa
:0401180032040000ad
:020000040000fa
:04011c0032040000a9
:020000040000fa
:0401200032040000a5
:020000040000fa
:0401240032040000a1
:020000040000fa
:04012800320400009d
:020000040000fa
:04012c003204000099
:020000040000fa
:040130003204000095
:020000040000fa
:040134003204000091
:020000040000fa
:04013800320400008d
:020000040000fa
:04013c003204000089
:020000040000fa
:040140003204000085
:020000040000fa
:040144003204000081
:020000040000fa
:04014800320400007d
:020000040000fa
:04014c003204000079
:020000040000fa
:040150003204000075
:020000040000fa
:040154003204000071
:020000040000fa
:04015800320400006d
:020000040000fa
:04015c003204000069
:020000040000fa
:040160003204000065
:020000040000fa
:040164003204000061
:020000040000fa
:04016800320400005d
:020000040000fa
:04016c003204000059
:020000040000fa
:040170003204000055
:020000040000fa
:040174003204000051
:020000040000fa
:04017800320400004d
:020000040000fa
:04017c003204000049
:020000040000fa
:040180003204000045
:020000040000fa
:040184003204000041
:020000040000fa
:04018800320400003d
:020000040000fa
:04018c003204000039
:020000040000fa
:040190003204000035
:020000040000fa
:040194003204000031
:020000040000fa
:04019800320400002d
:020000040000fa
:04019c003204000029
:020000040000fa
:0401a0003204000025
:020000040000fa
:0401a4003204000021
:020000040000fa
:0401a800320400001d
:020000040000fa
:0401ac003204000019
:020000040000fa
:0401b0003204000015
:020000040000fa
:0401b4003204000011
:020000040000fa
:0401b800320400000d
:020000040000fa
:0401bc003204000009
:020000040000fa
:0401c0003204000005
:020000040000fa
:0401c4003204000001
:020000040000fa
:0401c80032040000fd
:020000040000fa
:0401cc0032040000f9
:020000040000fa
:0401d00032040000f5
:020000040000fa
:0401d40032040000f1
:020000040000fa
:0401d80032040000ed
:020000040000fa
:0401dc0032040000e9
:020000040000fa
:0401e00032040000e5
:020000040000fa
:0401e40032040000e1
:020000040000fa
:0401e80032040000dd
:020000040000fa
:0401ec0032040000d9
:020000040000fa
:0401f00032040000d5
:020000040000fa
:0401f40032040000d1
:020000040000fa
:0401f80032040000cd
:020000040000fa
:0401fc0032040000c9
:020000040000fa
:0402000032040000c4
:020000040000fa
:0402040032040000c0
:020000040000fa
:0402080032040000bc
:020000040000fa
:04020c0032040000b8
:020000040000fa
:0402100032040000b4
:020000040000fa
:0402140032040000b0
:020000040000fa
:0402180032040000ac
:020000040000fa
:04021c0032040000a8
:020000040000fa
:0402200032040000a4
:020000040000fa
:0402240032040000a0
:020000040000fa
:04022800320400009c
:020000040000fa
:04022c003204000098
:020000040000fa
:040230003204000094
:020000040000fa
:040234003204000090
:020000040000fa
:04023800320400008c
:020000040000fa
:04023c003204000088
:020000040000fa
:040240003204000084
:020000040000fa
:040244003204000080
:020000040000fa
:04024800320400007c
:020000040000fa
:04024c003204000078
:020000040000fa
:040250003204000074
:020000040000fa
:040254003204000070
:020000040000fa
:04025800320400006c
:020000040000fa
:04025c003204000068
:020000040000fa
:040260003204000064
:020000040000fa
:040264003204000060
:020000040000fa
:10040000ef4121000eff27000e01880000000000d0
:10041000000020000000e000020032000001200087
:100420002002880014000700100107000000e0000f
:1004300003003a0060b423000100200002003700ee
:100440000000200001002000810f70000100320038
:100450000f000700000020000000e0000200320052
:100460000000020000000000ec2c02000000000070
:100470000040da000000fe00200020000000e00044
:1004800002003200100020009001880000000600e9
:10049000a1028800800478000000eb001f003700f4
:1004a000e284440054a0b4009905ba00e2844400f8
:1004b00054a0b4009906ba00e284440054a0b400e9
:1004c0000006eb00476fde00fd07b200ae018800ba
:1004d000636ce10003003a000ad801000000eb0061
:1004e0000e003700606ce10008003a00004deb00a0
:1004f0000a05e800020039003420ec000af0a000f0
:100500008b05e900f9ff3e00040037006168e10057
:10051000010032000086eb000b00070019c7ba008b
:100520000e04e0001905ba0003003a000a00e000da
:10053000dbff3a0000000600fe07b200ae028800b2
:100540008a047800f5ff37000cd0a300e20f4d00bd
:100550001c003b0089027800354dba000a05e8000e
:10056000020039003420ec000af0a0008b05e900fd
:100570000f003200254dba000a05e80002003900dc
:100580003420ec000af0a0008b05e90008003200de
:100590000c00e0000600320015cdba000a05e800a4
:1005a000020039003420ec000af0a0008b05e900bd
:1005b0008984e80054a0b4000b00e000e2ff3a0098
:1005c000000006009902ba00055d78008b05e9007d
:1005d000f7ff3200c82ade00055d78008b05e900d0
:1005e000f3ff32000c00e000f1ff320019ddba0029
:1005f000eeff37003600f800809fbe00829fbe00ed
:10060000849fbe00869fbe000000fa000068a9001b
:10061000a81a0700ea16070091110700c08680009b
:10062000d18680000200200003f823007303070036
:1006300080017800010178000300780082007800d2
:100640000000be00c0868800d1868800b08380008c
:100650000000e800b0838800b0838000f80f5000ed
:10066000020036007630ef0028130700000000007b
:100670000080fa004f03be004f02be004f01be00d3
:100680004f00be003600f900004006003600f800ba
:10069000809fbe00829fbe00849fbe00869fbe00da
:1006a0000000fa000108a900c516070000000000bc
:1006b0000080fa004f03be004f02be004f01be0093
:1006c0004f00be003600f90000400600809fbe00cb
:1006d000829fbe000000fa000368a90072838000b8
:1006e00083838000100020000100200002004000f1
:1006f0008380480070838800818388009283800013
:10070000a3838000100020000100200002004000b0
:100710008380480090838800a18388000000000047
:100720000080fa004f01be004f00be0000400600ee
:10073000801f78000000fa0001a8a90000188000be
:10074000a0a0880010188000b0a0880020188000a9
:10075000c0a0880030188000d0a088004018800019
:10076000e0a0880010c0b30087f0b70000000000d0
:100770000080fa004f007800004006003600f800c4
:10078000809fbe00829fbe00849fbe00869fbe00e9
:100790000000fa000188a900d1838000c083800096
:1007a000808f500002003200db1907000100370083
:1007b0007c70ef00000000000080fa004f03be00d4
:1007c0004f02be004f01be004f00be003600f900d0
:1007d000004006003600f800809fbe00829fbe00e9
:1007e000849fbe00869fbe000000fa000168a90039
:1007f000101180004200de0061406000e14f5000b7
:1008000001003a002242a900101180000000d1002e
:1008100061406000e14f500005003a002222a9002b
:10082000030037003011800000407800171b0700dc
:10083000101180000040780061406000e14f5000de
:10084000f8ff3200000000000080fa004f03be00f5
:100850004f02be004f01be004f00be003600f9003f
:10086000004006000040da000000fe000000050025
:100870008f1fd1002d0607008f87e9000000e000e0
:1008800000000600809feb00280607008f87e90024
:100890000000e00000000600810378006d00070002
:1008a0000001be006000b8000478a30013003a0005
:1008b0006220e10015003e000d0039008301d100e7
:1008c0000281d3008180d3008301d1000281d30053
:1008d0008180d3008301d1000281d3008180d300c5
:1008e0000538b000c42add00f300b2008381720035
:1008f00007f0a70003f0a0000000060083ff270018
:10090000020020006110b900f9ff370003ff270043
:10091000f7ff3700140020007f063700f4ff2f0098
:100920007d0637000001be004a0007000470a700e2
:1009300003f0a1006509b100160032000d0035007a
:100940006828e10006003500f0ff2f00f1ff2700c6
:100950000300e00013003b00010028000000050038
:1009600000004000818048008502e900fcff3a0059
:1009700008003700f88f420002003c008000eb00c6
:10098000000005008100d1000080d3008502e8004e
:10099000fcff3a000300e00002003b006000100092
:1009a000e0801800000006001400fa00889fbe00d6
:1009b0008a9fbe008c9fbe000004be000205be00e0
:1009c000680047000a90be000890be0012060700ab
:1009d0000070a7000bf0a1000bf8a30016003a006e
:1009e0009e0290003043200080825200b0fe2f0013
:1009f0000028e1000d003c00b0fc2f000028e100c1
:100a00000d0034001e0990008e0890007e009000ba
:100a10000501b0000201d1008180d3000080d30025
:100a20008502e800fbff3a00360637000100280087
:100a300000002000330637006000b80031063700a0
:100a40004f89de00820178004e0637006011b80041
:100a500087063700c70ade00f107b200f50fb200c3
:100a600008003200e1cf4200020032000170a00015
:100a700024000500810f7000010032000408050009
:100a800044000500810f700002003a0014000500c8
:100a90008502e9000000400081c04800fcff3b00e7
:100aa0000170a000240005001400fa00889fbe0019
:100ab0008a9fbe008c9fbe000005be000206be00dd
:100ac000680047000c90be000a90be00d2050700e7
:100ad0006400e1001a00320016003e006100e100ef
:100ae0001a0032006e049000fe0490000e0b90007d
:100af0009e0b90006011b8009e0590000b38b1006d
:100b0000d501200082817100610164008703d1005a
:100b10000683d3008984d3000884d3008502e900ca
:100b2000f8ff3a00810607000df0a70001f0a000d1
:100b3000f405370001fc270000002000faff370011
:100b400001f8270000002000f7ff37006000b80020
:100b5000f5ff37008c9fbe008a9fbe00889fbe00b5
:100b6000ca0107000bf0a200040037008c9fbe00f2
:100b70008a9fbe00889fbe00c40107000c48e100a8
:100b80000b003a000c40e100020032008b0107002c
:100b9000400037008b066d003e0032000af0a100d5
:100ba000f3012000f2ff2f006110b9003900370077
:100bb0000c40e100370032000940e100010036003e
:100bc0007e0107008a856d00cf5dde000b05750094
:100bd0000006eb008804fd00890454000100320087
:100be0007d0107000a04e00011003a000800e0005f
:100bf00028003200040040008580480006014900ba
:100c0000878149000358a300180032008301d100f6
:100c10000281d3008180d3000080d3000c86d300f2
:100c200001003900610676000804e800180037006a
:100c30000400500085805800060159008781590042
:100c4000060031000af0a2000c06ea00600018005d
:100c5000e080180060011900e081190003003a00eb
:100c60000004eb000005eb000a0037000348a30076
:100c700007003a000c06460000004800818048004a
:100c800002014900838149000804e900f7ff3700a9
:100c9000af013700c90137008c9fbe008a9fbe009c
:100ca000889fbe00790107000b056d000940e10037
:100cb0000a003a000800e000020032000c40e100a7
:100cc00006003a000af0a1000c047800f3012000ad
:100cd000f2ff2f006110b9009d0037000c40e100c9
:100ce0009b0032000800e000990032000c48e1004f
:100cf00002003a000004eb00030037000900e000a6
:100d000004003a000c0478006000b8006011b800dc
:100d10008f0037000348a30006003a00000040009f
:100d20008180480002014900838149000804e900ec
:100d3000f8ff37000748a30006003a00040242000b
:100d400085824a0006034b0087834b008904e90033
:100d5000f8ff3700fd3f20008d8454000904540043
:100d60008a1f7800881f78000004780081047800ca
:100d700002057800830578006000b8006011b800b3
:100d80000d042000050037000804440089844c004d
:100d90000a054d008b854d00080031000404540005
:100da00085845c0006055d0087855d008381d20037
:100db0008d06d300f4ff3b00070037000404440015
:100dc00085844c0006054d0087854d008381d20047
:100dd0008d06d300ecff3b000804440089844c00de
:100de0000a054d008b854d000800310004045400b5
:100df00085845c0006055d0087855d000281d20068
:100e00008d06d300f4ff3b000700370004044400c4
:100e100085844c0006054d0087854d000281d20077
:100e20008d06d300ecff3b000804440089844c008d
:100e30000a054d008b854d00080031000404540064
:100e400085845c0006055d0087855d008180d20099
:100e50008d06d300f4ff3b00070037000404440074
:100e600085844c0006054d0087854d008180d200a9
:100e70008d06d300ecff3b000804440089844c003d
:100e80000a054d008b854d00080031000404540014
:100e900085845c0006055d0087855d000080d200ca
:100ea0008d06d300f4ff3b00070037000404440024
:100eb00085844c0006054d0087854d000080d200da
:100ec0008d06d300ecff3b000b00e00004003d006a
:100ed0000404440085844c0006054d0087854d00c0
:100ee0000006eb008301d1000281d3008180d30092
:100ef0000080d3000c86d3008301d1000281d3008f
:100f00008180d3000080d3000c86d3008904740054
:100f10008b0575008b847400010032006106760039
:100f20004f0478004f0578000348a30007003a00fb
:100f30000c0646000000480081804800020149007c
:100f4000838149000804e900f7ff370000013700fa
:100f50001a0137008c9fbe008a9fbe00889fbe008a
:100f6000ca0007000b056d008a0578000c40e100ff
:100f700008003a000900e00082003a000af0a100ef
:100f80000c047800f3012000f2ff2f006110b9007b
:100f90007c0037000c48e10004003a00870007009d
:100fa0000900e00077003a00f4ff37000800e00095
:100fb000740032000900e00002003a007f000700e0
:100fc00070003700ed3f20008d8454000904440078
:100fd0008a1f7800881f7800871f7800861f780096
:100fe000851f7800841f7800cb19dd00c515de0051
:100ff0008b8571004b11dd00450dde000a05710087
:10100000cb08dd00c504de00898470004b04dd00e0
:101010000440b8000546b8008c80400060814e0056
:10102000044eb8008c8040000d0149008001eb00a7
:101030000318ad000456b8000c0141008d81490031
:101040000002eb000420ad000646b8000c01410090
:101050008d81490060024a00054eb8000c01410034
:101060008d81490060024a000556b8008c8141001c
:101070000d024a008002eb000528ad000746b800cb
:101080008c8141000d024a00e0824a00064eb80001
:101090008c8141000d024a00e0824a004f06780030
:1010a0000c5eb8008c8141000d024a00e0824a00cb
:1010b0000656b8000c0242008d824a000003eb0085
:1010c0000630ad00074eb8000c0242008d824a0087
:1010d00060034b004f0678000c5eb8000c02420023
:1010e0008d824a0060034b000756b8008c82420094
:1010f0000d034b008003eb000738ad004f0678006e
:101100000c5eb8008c8242000d034b00e0834b0064
:101110004f0678000c5eb8000c0343008d834b0033
:101120004f0478004f0578000748a3000a003a00f2
:10113000000040008180480002014900838149008d
:1011400004024a0085824a0006034b0087834b0055
:101150000804e900f4ff370003067800808070007f
:1011600082807000010032006106760087017800fd
:101170000601780085007800040078008804780073
:10118000780037008d0037008c06460002003a00d8
:101190000000a6000000060060004800e080480053
:1011a00060014900e08149000350a60000000600ec
:1011b0008301d1000804e800000006000002fd00e1
:1011c0008102fd000203fd008303fd008804fd0091
:1011d0008a05fd00000006007048e1001a00390091
:1011e0007d0320000d48e1000a00390081057000f0
:1011f000830671008c8575008d8575000006eb00f7
:101200001cd8e700610676006000b8006011b800e5
:10121000000006007048e1000b0039008c057800e2
:101220000006780001007800820078000301780051
:101230008001eb0013d8e70061067600f0845400cb
:10124000f4ff3a00000006006160e1000c48ad00c8
:10125000f08514008b06dd000966de000d067600c1
:101260008b0edd000900de000d0070008b16dd0026
:101270008908de008d8070008b1edd000911de0004
:101280000d0171008919de00000006000d00280024
:10129000fc7f20000d856100441cde00ef816100b1
:1012a0000c046400010032000340a0008d8563003f
:1012b000c43cde00ef8363008c84640001003200d4
:1012c0000740a0000c40e10006003a00ef866100f4
:1012d0008286760081867600808676000100320064
:1012e000180037000c48e10007003a00ef86630061
:1012f0008686760085867600848676000200320037
:10130000aeff07000f0037000348a30005003a00b6
:1013100081067000828676008386760001003200a6
:101320000804e8000748a30005003a00850672009b
:101330008686760087867600010032008904e80000
:1013400000000600cf047800cf0578001b003700ae
:10135000000278008102780002037800830378009d
:10136000880478000cf0a70087ff0700fd7f2000ad
:101370000d40e100040035000d0478006000b80065
:101380006011b8000d0037000800e0000b003c00c1
:101390000400780085007800060178008701780055
:1013a000e18414008cff07000cf0a70076ff070013
:1013b0000004eb000340a7000804e8004444dd00fb
:1013c0006fc56100880175004f04be004f05be0067
:1013d0004f06be000000060007f8270007836100e3
:1013e0000638e10004003a00f70720008783610017
:1013f0008703710001003a0003f0a200889fbe003d
:101400008a9fbe008c9fbe00470ade000480a100b8
:10141000c71ade000580a1000700280007856000cc
:1014200087856100f70f20000720e1009e00320051
:101430000728e1009c003200010678000400e0006b
:10144000b4003200f7072000878060000170a00020
:101450000500e000c0003200f7072000878161002e
:101460000370a000050652000f003a000b50e10087
:101470000b0032000308e10002003a000200e10024
:101480007e003200020450008384580004003100c2
:101490000001fd008101fd008402fd008a05fd00c0
:1014a0006044b800210037000520e10005003d0040
:1014b0000001fd008101fd008402fd008a05fd00a0
:1014c000050652007a60e100050035000170a100b8
:1014d0004722dd00848070008a807000630037003e
:1014e0006044b800ef02660007ff2f0007066600a1
:1014f0000500e00006003400f08312008714dd00d0
:101500000511de00071bdd00060171008519de00f4
:101510007060e1000500350009047800820478005d
:10152000030178008001eb00700656000b50e100cb
:1015300003003a00020040008380480004003700a6
:1015400060041400e0841c000200580083805800ee
:101550000188a300060032008100d1000080d30082
:101560008984d3000884d3000402e80027003700f0
:101570000178a30025003a000100e00003003200da
:101580008186cf00698656000a0037008c00200053
:101590000000e00004003a000900780088047800a8
:1015a0000004eb00700252008086cf000d0646005a
:1015b0000c06e9007060e10006003500800078004c
:1015c00009007800880478000004eb0070065600db
:1015d000700252000c00e0000c0034008c08dd00aa
:1015e000f00316000703de00868070000c00dd00ab
:1015f000074bde00060070008c4cdd000743de0068
:10160000868474000c44dd000c0252006120e1006d
:101610002000350061016000070028008781640018
:10162000f7ff270087836400070374000300e000ce
:101630000600320082037300040032000000e8005c
:10164000e08048000188a3000e003a00f70f200058
:101650000720e1004a003d000170a1004722dd00a3
:10166000810072008a8070000000be004f06be003c
:101670004f05be004f04be00000006006000b80029
:10168000faff37008100d1000080d3000402e80097
:10169000eeff37000401780089017400a101070002
:1016a0008a807000f1ff3700f70107000702780019
:1016b0000001fd008101fd00f301070087027800b1
:1016c000850372000778a300040032000001fd00ca
:1016d0008101fd0006020700e4ff37008503620078
:1016e0000768a300080032000b50e100030032003d
:1016f000f0ff2f00f1ff2700dcff37000001fd00a5
:101700008101fd00d9ff37000468a300d7ff320034
:10171000faff3700f8ff2700888360000b003a00cb
:101720000000e00009003a00830364008283730034
:10173000020032000200be00ccff37000b50e10077
:10174000ceff3a000200be00c8ff370014002000a0
:10175000810064003eff3700f8ff270088836100a6
:1017600004003a000200e00002003a008c00780019
:10177000beff3700150020008301640039ff3700e9
:1017800001f827000000200081007500b7ff370036
:10179000889fbe008a9fbe008c9fbe001b00200059
:1017a0000202be00058668000600280006066600e4
:1017b0004709de00f20fb200820032000243e80067
:1017c00080003200c729de00f30fb2007d00320036
:1017d0000343e8007b003200f107b2000170a00073
:1017e000f507b2000570a000c708dd004903de0060
:1017f000868070004700dd00c72add004923de0037
:10180000868272004722dd00030551000403500068
:1018100085835800030031000000400081804800ab
:101820000a05e9008c1f78008a9fbe000400500062
:10183000858058000402420085824a000000400072
:10184000818048000005eb000004be006033b80052
:101850000406be000d48e1005600310011000900e9
:101860004dccd8000c01b8000d02b80084814100b5
:1018700060824a008283530003045c0084845c001d
:1018800060055d000a00e00025003a008005780050
:101890000d40e10049003100880078000700780021
:1018a000110009004d88d8000c01b8000d02b800e5
:1018b0008481410060824a006003110083835b00e1
:1018c00004045c00e0845c000900e00021003a00b0
:1018d0004f01be000300e0002b003200e301600076
:1018e000070673008c8171000100320064007000f3
:1018f0004200de004e5edd000c007000c258de00cb
:1019000001e0a00083010700cf0178008180710011
:101910004f06be004f05be004f04be00000006008b
:101920008c8343000d044c00e0844c0060054d00a6
:101930000000e9000a00e000d4ff32008c8343007d
:101940000d044c00e0844c0060054d000000e900ef
:10195000ceff37000c0343008d834b0060044c0026
:10196000e0844c000000e9000900e000d8ff3200ec
:101970000c0343008d834b0060044c00e0844c005a
:101980000000e900d2ff37004200de004e5edd00bd
:101990000c007000c258de0001e0a000cf0178000a
:1019a0000300e000daff320060001000e080180061
:1019b000d7ff3700f0ff2f00aaff3700f0ff2f00fe
:1019c000b9ff37000404be002f0107008706780026
:1019d0000004fd008104fd002b0107000783660061
:1019e0000678a300030032000960a7000800be00cb
:1019f0002c0037000d78a300020032000800be0062
:101a0000280037000778a30026003a0001f0a10063
:101a100009f0a1000668a30003003200f1ff2700cf
:101a2000f0ff2f00baff37000d68a300030032005b
:101a30000800be008c807000b5ff37000768a30067
:101a400007003a000648a30003003200f1ff270018
:101a5000f0ff2f00aeff37000d48a3000300320057
:101a60006000b8008c807000a9ff37000748a30011
:101a70000400320001f82700000020008c80700074
:101a8000a3ff3700760107000004fd008104fd007c
:101a900002057800720107000802be008a01780082
:101aa00059ff37000160a000120220004284880024
:101ab00097ff37000100e000120032000500e0004f
:101ac00010003200889fbe008a9fbe008c9fbe001f
:101ad0000006eb0001f8a3000300320060001000d4
:101ae000e08018000cf0a00005f8a300030032000d
:101af00060021200e0821a000cf0a2008005eb00e8
:101b000041ff37006000b800020005000383680051
:101b10000700280007036300470ade000480a100d5
:101b2000c71ade000580a100f70f20000720e100a2
:101b3000420032000728e10040003200889fbe00ca
:101b40008a9fbe008c1f7800f107b200f307b20035
:101b50000400e000640032000170a0000500e00015
:101b6000680032000370a00085054200eb07b10059
:101b70000204b8000302b8008484440060854a006f
:101b8000020ab800848444000a854a00030ab800a7
:101b900004054500040033000804d0008984d20005
:101ba0000a85d2008b05e9006158e1003d0035004f
:101bb00002102000090161000308200089816100f2
:101bc000f70720008783640008867300c84cde0096
:101bd000c853dd00878474004855de000300e00030
:101be0000600320082037600040032008904e80017
:101bf00060054d000a88a3000c003a00f70f200092
:101c00000758e10044003d000a70a100c75ddd00f7
:101c10000a8575008a007300090078004f06780075
:101c20004f05be004f04be00000006000a05d100ab
:101c30008984d3008b05e800f0ff3700881f780007
:101c40000604780090000700070278000001fd00fc
:101c50008101fd008c000700870278008503720077
:101c60000778a300050032000001fd008101fd009e
:101c70009f0007004f0478000000060085037200f3
:101c80000748a30003003200f0ff2f00f1ff2700f8
:101c9000f8ff37000000200001f82700888070005e
:101ca000f4ff3700880178004848dd00808171002a
:101cb0004848de00c850dd0001007000c850de005a
:101cc000060478000b017800160007008880700079
:101cd000d2ff37000500e0000500320017002000a9
:101ce0003a0007009dff370081037000f9ff3a00ba
:101cf000860078004f0678004f05be004f04be00f6
:101d00000000050083037100f9ff32002700200066
:101d10002e00070094ff370001f82700868070002e
:101d2000f4ff37000100e0002600320061011100dd
:101d30007810e10023003c006022b8007010e10040
:101d40000400350080027800010078008000eb007c
:101d5000700151000200e00009003400700311001e
:101d6000062add00822ade008603dd0087827200fb
:101d70000200de00860bdd00070070008208de0036
:101d800084817100f4ff2700048262008481710065
:101d900004002800848262006102600005f0a60051
:101da0000000060004827100070032000000e80015
:101db000e0804800000006000002be006000b8009d
:101dc000efff37006000b80000000600889fbe00eb
:101dd0000004eb006138e10016003a000100e00069
:101de00008003a00c800de004800dd00880020003e
:101df0000100e00003003a00c800de004800dd00fa
:101e0000680444008184cf00e98454000600340053
:101e10008908dd00f08314008703de0087807000ee
:101e20000900dd0009044400610214004f04be00f3
:101e3000000006000300e00008003a00c811de00c0
:101e40004811dd00880020000300e00003003a0094
:101e5000c811de004811dd00680444008384cf000f
:101e6000e9845400060034008919dd00f083140071
:101e70008713de00878171000911dd000904440029
:101e8000e1021400e9ff37002700200001f0a7005d
:101e900017002000470bde00f60fb20004003200ee
:101ea0000643e8000a0032004702b30000000600c3
:101eb00001037800f607b2000603700002003a0042
:101ec0000703b300000006008702b300000006000d
:101ed00001037800f607b20006037000020032002a
:101ee0000770a000000006000760a00000000600c8
:101ef0000478a300040032000578a3000300320038
:101f00000168a30001003a000200be000160a000c9
:101f10000000060081017000270032008002eb0003
:101f200001f8a3000300320060001000e0801800f8
:101f300015002000f40720000202420020003400b7
:101f4000f7032000870360000604200000036300fd
:101f500002082000000161004700de00c909dd0021
:101f600000807100c708de000600e00008003200b3
:101f700087037100060032001000b0000180b0003d
:101f80000188a30002003200c108de000402e8005c
:101f9000f107b200f30f20000320e10003003d0031
:101fa0004722dd00810072002900370001f8270078
:101fb0000000eb00260037006000b80000000600bb
:101fc000680212007f20e100020034006000b800c7
:101fd0001f0037006011b8007020e10004003500d8
:101fe00080017800010078008000eb007002520050
:101ff0000400e00009003400f00312000719dd00be
:102000008419de000703dd00868171000400de0014
:10201000070bdd00060070008408de00f7ff2700d4
:1020200083836300870371000600280003036300b5
:10203000070032000700e00003003a006101600081
:1020400002817300020032001000b0000180b00075
:102050000500a6000000060001f0a0000000060038
:102060004f0ade004709de00f107b200f20fb200ae
:102070000b003200f207b1000170a000c708dd00bc
:10208000c901de00838070004700dd000400a60067
:102090000000060060001000e0801800000006004c
:1020a000810f700001003a00000006008182cf001d
:1020b0000500e00010003e008082cf00ee8242006a
:1020c0007028e1000400390007003e00800078001d
:1020d0000000eb000e003700708312008600de0067
:1020e0000500dd000a003700708352008600dd0025
:1020f0000000eb0006003700e28252008508dd0098
:10210000708312000603de00868070000500dd008b
:102110007507b0000501ea000400a60000000600f3
:1021200060001000e080180000000600889fbe00dc
:102130008a9fbe008c9fbe000404be000605be0040
:10214000809fbe00829fbe00210007000406780029
:102150000800be000a01be001d00070084067800ca
:102160004f03be004f02be008d4f76007fb0970038
:1021700013003300f0ff2f008b8f6b0006003b0035
:102180000d0666000c00a7000a00370007f0a60045
:10219000100020000a003700880f5200898f5a0073
:1021a0008a0f5b008b8f5b0003003900100020005a
:1021b00001003e000000200007f0a7000000ea0038
:1021c0004f06be004f05be004f04be0000000600d3
:1021d00005ff270005826100070032000428e100a6
:1021e00001003200240005000600070001003a004b
:1021f000440005000408050002000700f9ff3a004a
:10220000140005006f826100810270008502710078
:1022100085027200000006005002be00e40050007b
:102220005003be004439de00f700b200f37f200007
:1022300003016100090032000218e10016003a00b3
:102240008501720083017300838173000008200000
:1022500015003a004000200013003700850172008d
:10226000830173008381730005003a0004a8be0057
:1022700006a8be00100020000b0037000201e90094
:102280000402420085824a0006034b0087834b000c
:102290000748a300f9ff32000740a00004a8be00d1
:1022a00006a8be0020002000800098009200980040
:1022b00000000600680447000294be000094be00bf
:1022c000fc0447008694be008494be000900780098
:1022d000d1ff070008007800cfff070099007800c1
:1022e000814f70000b003b000800be00e9000700b2
:1022f0004f00b10003003700f3ff2700f2ff2f006b
:102300006110b9004f06be004f05be004f04be006d
:102310000080fa0000000600889fbe008a9fbe0071
:10232000841f7800a70007004f00780011003300d9
:10233000f0ff2f00838f6c0006003b000405650052
:102340000a00a7000800370009f0a60010002000ce
:1023500008003700820f5400838f5c0003003900af
:102360001000200001003e000000200009f0a7003e
:102370000000ea004f05be004f04be000000e00070
:1023800000000600881f7800030478000300e000c6
:1023900007003d0060001000e08018006001190097
:1023a000e081190002003b0001f02d00030037001e
:1023b0000400070008f0a70003f0a0004f04780015
:1023c00000000600889fbe000082700004027100b9
:1023d000048271002400320036432000c500200032
:1023e0008383cf000a0039000541b1008283cf000a
:1023f000070039000541b1008183cf000400390096
:102400000541b1008083cf00010039000541b100d2
:1024100085c353006022b800120032000a003b005e
:1024200084827200610260008301d1000281d300c6
:102430008180d3000080d3000603e8008743e800d2
:10244000f7ff3a0007003700000040008180480095
:1024500002014900838149000603e9008743e9003e
:10246000f9ff3a005f0007004f04be0000000600bd
:10247000889fbe008a9fbe00008270000402710027
:1024800004827100260032000004be000200be007b
:102490006011b8006b092000950220000182cf0076
:1024a0000a0039000541b1000082cf000700390061
:1024b0000541b1000982cf00040039000541b10097
:1024c0000882cf00010039000541b10005425200e9
:1024d000120032000a003b00828171006101640039
:1024e0008100d1000080d3008984d3000884d30008
:1024f0008b05e8000442e800f7ff3a0007003700c8
:102500000804440089844c00000048008180480091
:102510008b05e9000442e900f9ff3a0003000700d7
:102520004f05be004f04be000000060081002000e1
:10253000618055000b003d000b00200061fe2f0064
:102540000100e1001d00340082817100610164001e
:102550008904d1000884d3000000e800faff3a00a3
:102560007100200061006400030070000200600040
:102570000900320061044400e0844c000988a50091
:10258000050032008b05e8006808e10002003a000f
:102590008904d1000884d300f20f20000258e10022
:1025a00005003d00c75ddd00f907b20089807500b8
:1025b00008007800000006000bf827008b00780068
:1025c000000005000004be0022f907000003be0061
:1025d0000405be000200be001ef90700844f75000e
:1025e00000000600180020005700200008045300d7
:1025f0000d003d000600200097fc2f000740e10081
:102600001e00340084827200610260008301d100e8
:102610000281d3008180d3000080d3000804e80049
:10262000f8ff3a00470020006104600005047400d0
:10263000040464000d00320061004000e0804800a6
:1026400060014900e081490003b8a500070032009d
:102650000603e8006538e10004003a008301d10078
:102660000281d3008180d3000080d300f87f200056
:102670000830e10003003500080378006000b8006e
:102680006011b8004433dd00f300b2008301730031
:1026900000000600e48240001078a300070032002a
:1026a000640240001178a3003400be001401be0093
:1026b000050032000330a700000006003500780056
:1026c000b50078001501be000330a0000000060030
:1026d0001000fa00889fbe008a9fbe000204be0060
:1026e0000802be0005f0a100b61f220097fe2300dd
:1026f000860f5200878f5a0018003e00d6092a0024
:1027000067e42300860f5200878f5a000f003e00b7
:102710006022b800060020000777240013f90700a4
:10272000c0b79f00d1b79f00e2b79f00f3b79f00eb
:102730006000b8000200200003ff23004f05be0028
:102740004f04be000080fa00000006006022b800be
:102750006033b80001020700f8ff3700f6ff2f00d2
:10276000f7fe2700860f5200878f5a0004003600bc
:102770000203be000002be00f6f80700efff3700bc
:1027800084fe2f000f0242009702070063046000de
:102790000fba97009fba97002fbb9700bfbb970057
:1027a0004fb09700dfb097006fb19700ffb197006f
:1027b000e10f5400080032000800e000e5ff32009d
:1027c000e20f54000900320018002000881f780032
:1027d000fd04070003003700881f7800fa04070093
:1027e00003f0a2008f87e900d4ff3700db01070068
:1027f00003f0a200d1ff37002000fa00889fbe003e
:102800008a9fbe008c9fbe008e1f7800d4b79f00a9
:10281000e5b79f00f6b79f0087bf9f000402420004
:1028200085824a0006034b0087834b0094b79f00c4
:10283000a5b79f00b6b79f00c7b79f00e00f520033
:10284000e08f5a00e00f5b00e08f5b002400320055
:10285000f4ff2f00f5ff2f00f6ff2f00f7ff2700f2
:102860005fb49700efb497007fb597008fbd9700d6
:1028700008046200898462000a0563008b85630096
:102880006022b8000600200007ff27000440e10096
:1028900005c8e10006d0e10007d8e10010003e00c5
:1028a000d0af9f00e1af9f00f2af9f0083b79f00c2
:1028b000441cde006055b8008004eb0098af9f0018
:1028c000a9af9f00baaf9f00cbaf9f00f87f200059
:1028d0009fae97000d066400880f56000e003a0068
:1028e0005fb29700efb297007fb397008fbb97005e
:1028f00098f907000203be000002be00e6f80700d8
:102900004f0778004f06be004f05be004f04be00c3
:102910000080fa00000006000002400081824800aa
:10292000020349008383490094af9f00a5af9f0035
:10293000b6af9f00c7af9f001fb49700afb497001a
:102940003fb59700cfb597000440e10005c8e1000e
:1029500006d0e10007d8e100090039000440e10099
:1029600005c8e10006d0e10007d8e100e4ff3a0025
:102970006022b8006033b80076f90700e0ff370046
:102980000c00e0009b003a005fac9700efac9700b2
:102990007fad97008fb59700cd0020000804d000d0
:1029a0008984d2000a85d2008b85d2008d06e90089
:1029b000faff3a00e00f5400e08f5c00e00f5d008a
:1029c000e08f5d0085003d00e10616005faa9700dc
:1029d000efaa97007fab97008fb397008d06e900b1
:1029e000050033000402d0008582d2000683d200a5
:1029f0008783d200f9ff370094b79f00a5b79f00e7
:102a0000b6b79f00c7b79f005fb29700efb29700bd
:102a10007fb397008fbb9700443cde00fd7f200012
:102a2000888666000d00e0008e003a000605be00b4
:102a30000404be00ce0020000804d0008984d20027
:102a40000a85d2008b85d2000e07e900faff3a0012
:102a5000e00f5400e08f5c00e00f5d00e08f5d0050
:102a60007a003d00618416005fb29700efb29700d4
:102a70007fb397008fbb97000804e900050033007f
:102a80000402d0008582d2000683d2008783d20060
:102a9000f9ff370094af9f00a5af9f00b6af9f002e
:102aa000c7af9f001fb49700afb497003fb5970022
:102ab000cfb597001faa9700afaa97003fab97002a
:102ac000cfab97000404540085845c0006055d00cc
:102ad00087855d00d8b79f00e9b79f00fab79f00d0
:102ae0008bbf9f008d0f560072003c00e00f54001a
:102af000e08f5c00e00f5d00e08f5d0009003500b5
:102b0000e00f5400e08f5c00e00f5d00e08f5d009f
:102b100097ff320098b79f00a9b79f00bab79f00f0
:102b2000cbb79f001fb29700afb297003fb397009b
:102b3000cfb397004438de006011b8008000eb008e
:102b4000e00f5000e08f5800e00f5900e08f59006f
:102b5000780032000c00e000840034006000b8000f
:102b60000200200003ff2f000000420081804a0085
:102b700002014b0083814b006164b900614db900d3
:102b8000c445dd000005eb006044b800000074009f
:102b90008180740002017500838175006044b80073
:102ba0000a0020000b0028005faa9700efaa9700f8
:102bb0007fab97008fb3970008046200898462009e
:102bc0000a0563008b856300000074008180740037
:102bd000020175008381750049ff37000c06e9008a
:102be0000804d0008984d2000a85d2008b85d200e7
:102bf00070ff37005faa9700efaa97007fab97009e
:102c00008fb39700fb0020008b856300faff2f0035
:102c10000a0462008a8462000a0563006022b80028
:102c2000060020000701200004047400858474005d
:102c3000060575008785750098b79f00a9b79f00a6
:102c4000bab79f00cbb79f006fff37008d06e90032
:102c50000804d0008984d2000a85d2008b85d20076
:102c60007bff3700f8ff2f00f9ff2f00faff2f003e
:102c7000fb0020005fb29700efb297007fb3970090
:102c80008fbb970004026400858264000603650020
:102c9000878365006044b8000a0020000b01200013
:102ca00008027200898272000a0373008b8373002a
:102cb00078ff37005fb49700efb497007fb59700b7
:102cc0008fbd9700e00f5400e08f5c00e00f5d00c7
:102cd000e08f5d0009003500e00f5400e08f5c00dc
:102ce000e00f5d00e08f5d0021ff320098b79f008c
:102cf000a9b79f00bab79f00cbb79f001fb297003c
:102d0000afb297003fb39700cfb397000402d00053
:102d10008582d2000683d2008783d20094b79f00b9
:102d2000a5b79f00b6b79f00c7b79f000c06e90084
:102d30005cff37001fb49700afb497003fb5970012
:102d4000cfb597000804d0008984d2000a85d2004c
:102d50008b85d20098b79f00a9b79f00bab79f0094
:102d6000cbb79f000c06e9006eff37006106160026
:102d70001fb09700afb097003fb19700cfb1970059
:102d80000c06e900050033008301d1000281d30065
:102d90008180d3000080d300f9ff37007fff370028
:102da0001000fa00889fbe008a9fbe000205be0088
:102db0000004be000a02be000400be0001f0a10033
:102dc000b21f220093fe2300820f5000838f580011
:102dd0002e003e00f2ff2f00f3e42300820f50008c
:102de000838f58001f003e006000b80002ff2700dc
:102df00085006100e00f5000e08f580012003a009b
:102e00006022b80006002000078723000800be00eb
:102e10000a01be004ff807000002be000203be0018
:102e2000c4b79f00d5b79f00e6b79f00f7b79f00d4
:102e30000800be000a01be004f05be004f04be00e0
:102e40000080fa00000006006022b80006002000a2
:102e5000077724000800be000a01be0043f7070000
:102e6000edff3700801feb006022b8006033b80030
:102e70000800be000a01be00530307000205be00a1
:102e80000004be008f87e900e9ff3700f2ff2f0042
:102e9000f3fe2700820f5000838f58000800360091
:102ea0000802be000a03be000800be000a01be0000
:102eb00028f707000004be000205be00dcff370053
:102ec00084fe2f000f0242000800be000a01be006f
:102ed000c5000700630460000fba97009fba97000f
:102ee0002fbb9700bfbb97004fb09700dfb0970094
:102ef0006fb19700ffb19700e10f54000c00320052
:102f00000800e00007003200e20f54000c0032001d
:102f1000120007000205be000004be000bf0a20074
:102f2000c3ff370018002000881f7800d2ff370049
:102f30000a0007000205be000004be00bcff370007
:102f400018002000881f78001f0307000205be003c
:102f50000004be000bf0a200caff37003000fa00e8
:102f6000889fbe008a9fbe0080bf9f0091bf9f00c8
:102f7000a2bf9f00b3bf9f0084af9f0095af9f008b
:102f8000a6af9f00b7af9f000203be000002be00c5
:102f9000f0f707000205be000004be000203be00f9
:102fa0000002be00ebf70700c0b79f00d1b79f003b
:102fb000e2b79f00f3b79f006022b8000600200030
:102fc00007fe23000800be000a01be00e1f707006b
:102fd00080b79f0091b79f00a2b79f00b3b79f0033
:102fe0000203be000002be006000b8000200200024
:102ff00003ff2300d7f60700c0af9f00d1af9f00ab
:10300000e2af9f00f3af9f00448d230085e82b00c3
:1030100096ae2f0087da2b000800be000a01be0022
:10302000ccf70700441c2b0045db2b00e6e92e0003
:1030300017e22300cdf607000802be000a03be0017
:10304000c4f70700d42a2500c5092800f6e42700a4
:1030500027e92300bff60700c0a79f00d1a79f0064
:10306000e2a79f00f3a79f004fb29700dfb297003f
:103070006fb39700ffb397000400be000601be00c7
:10308000b4f707000203be000002be004fa0970085
:10309000dfa097006fa19700ffa19700adf7070091
:1030a000c0b79f00d1b79f00e2b79f00f3b79f0062
:1030b00004592100b59c2100061a2000a7ef230027
:1030c0000800be000a01be00a2f707007417250021
:1030d000156c2100c6162c0067f523009df607002d
:1030e0000802be000a03be009af70700c454250078
:1030f000555525005655250057fa23009bf6070025
:103100000802be000a03be0092f707000203be00d9
:103110000002be004fb09700dfb097006fb197007c
:10312000ffb1970091f607000802be000a03be0037
:1031300088f707000205be000004be000faa970032
:103140009faa97002fab9700bfab97000fb89700cf
:103150009fb897002fb99700bfb997007df7070078
:103160000203be000002be000800be000a01be004d
:1031700078f607000205be000004be004faa9700c3
:10318000dfaa97006fab9700ffab97006000b80015
:103190000200200003ff23006ef607000fb2970025
:1031a0009fb297002fb39700bfb3970069f607004f
:1031b0000203be000002be000800be000a01be00fd
:1031c0006af607004faa9700dfaa97006fab970037
:1031d000ffab970065f607004f05be004f04be0029
:1031e0000080fa0000000600ef02b000889fbe00d9
:1031f0008a9fbe008c9fbe008e1f78000205be0015
:103200000004be00840678004f18de000006780037
:103210000a02be00e4af9f008501780003f0a10020
:10322000f3af9f00a0a72600f10024006fa997002c
:10323000ffa99700800f5100818f59008d003e003b
:1032400004007800ef806200b21f2200930020008b
:10325000820f5000838f580029013200c0972d0043
:10326000210024006faa9700ffaa9700800f520048
:10327000818f5a0043003e000400200005442500d1
:10328000b61f220097ff23000800be000a01be00ff
:103290000c00e00021003a002ef607000205be00f7
:1032a0000004be001433260025a6210016462b007c
:1032b00007dd230027f607000203be000002be0060
:1032c000809ebe008296be000800be000a01be00bd
:1032d00020f607001433260025a6210016462b00f1
:1032e00007dd23001bf60700c0069800d1069800f2
:1032f000e2069800f30698001000200080b79f00b7
:103300000fb097004f0778004f06be004f05be0074
:103310004f04be00ef02b1000000060013f60700e4
:103320000205be000004be001433260025a62100bd
:1033300016462b0007dd23000cf607000203be0033
:103340000002be00809ebe008296be000800be0045
:103350000a01be00fff507001433260025a6210050
:1033600016462b0007dd230000f60700c006980074
:10337000d1069800e2069800f30698000080eb0062
:10338000deff37000400200005442500b61f2200a0
:10339000970024000800be000a01be000c00e000f7
:1033a0001a003a00ebf507000205be000004be005b
:1033b0001433260025a6210016462b0007de230025
:1033c000e4f507000203be000002be00809ebe00be
:1033d0008296be000800be000a01be00ddf50700af
:1033e0001433260025a6210016462b0007de2300f5
:1033f000d8f50700c0069800d1069800e2069800ac
:10340000f306980020002000bcff3700d7f5070026
:103410000205be000004be001433260025a62100cc
:1034200016462b0007de2300d0f507000203be007e
:103430000002be00809ebe008296be000800be0054
:103440000a01be00c3f507001433260025a621009b
:1034500016462b0007de2300c4f50700c0069800bf
:10346000d1069800e2069800f3069800e0ff2f00ce
:10347000a2ff3700b0632400c10124006fa99700a8
:10348000ffa99700800f5100818f590095003e00e1
:10349000c0db2f0051012400800f5100818f5900a3
:1034a0004d003e00c0972d0021012400800f5100e7
:1034b000818f5900920032006022b800060020007f
:1034c000870024001033260021a6210012462b007d
:1034d00003dd23009ff6070080b79f0091b79f0090
:1034e000a2b79f00b3b79f000400200005f3270098
:1034f000c6972d00270124000800be000a01be0067
:103500000c00e0001a003a0092f507000205be0028
:103510000004be000fb297009fb297002fb3970030
:10352000bfb397008bf507000203be000002be0088
:10353000809ebe008296be000800be000a01be004a
:1035400084f507000fb297009fb297002fb3970042
:10355000bfb397007ff50700c0069800d10698001a
:10356000e2069800f30698003000200063ff370061
:103570007ef507000205be000004be000fb29700f2
:103580009fb297002fb39700bfb3970077f507005e
:103590000203be000002be00809ebe008296be00f6
:1035a0000800be000a01be006af507000fb29700ce
:1035b0009fb297002fb39700bfb397006bf507003a
:1035c000c0069800d1069800e2069800f30698001d
:1035d000d0ff2f0049ff3700b01f220091012400c7
:1035e0006fa99700ffa99700800f5100818f5900a4
:1035f000430032000400200005442500b61f2200cd
:10360000970124000800be000a01be000c00e00083
:103610001a003a004ff507000205be000004be0084
:103620001433260025a6210016462b0007df2300b1
:1036300048f507000203be000002be00809ebe00e7
:103640008296be000800be000a01be0041f50700d8
:103650001433260025a6210016462b0007df230081
:103660003cf50700c0069800d1069800e2069800d5
:10367000f30698004000200020ff37003bf50700cc
:103680000205be000004be001433260025a621005a
:1036900016462b0007df230034f507000203be00a7
:1036a0000002be00809ebe008296be000800be00e2
:1036b0000a01be0027f507001433260025a62100c5
:1036c00016462b0007df230028f50700c0069800e8
:1036d000d1069800e2069800f3069800c0ff2f007c
:1036e00006ff3700a01f2200911324006fa9970046
:1036f000ffa99700800f5100818f5900e8003e001c
:1037000034882c0095dc260006f3250047fe2300b4
:103710000800be000a01be000ef607006022b800d5
:10372000060020008733240010f507006022b8004f
:10373000060020008733240006f5070080af9f00b5
:1037400091af9f00a2af9f00b3af9f00150207008b
:1037500080b79f000400200005442500b61f22000a
:1037600097ff23000fa897009fa897002fa9970005
:10377000bfa99700f7f507000203be000002be00d4
:103780000800be000a01be00f2f40700000678003f
:1037900001077800d2af9f00c3af9f00143326000b
:1037a00025a6210016462b0007dd23000fa8970051
:1037b0009fa897002fa99700bfa99700e5f50700dc
:1037c00080bf9f0001057800820478000304780020
:1037d0000002be000203be000c0078008e007800dc
:1037e0005fa99700cfa99700daf407006faa9700a6
:1037f000ffaa9700442ade0005002000b4a79f001e
:10380000c5a79f00441ade006033b8008002eb00b9
:10381000c4b79f00d5b79f00e6b79f00f7b79f00da
:10382000f57f20004fb3970006826200bfa3970088
:1038300004825300f00f520003003c00809ebe0043
:103840008296be00490037000400200005a6210032
:1038500016462b0007dd23000fa897009fa89700ae
:103860002fa99700bfa99700baf507000205be006f
:103870000004be000203be000002be000c0078007f
:103880008e0078005fa99700cfa99700b1f40700d8
:10389000e0af9f00f1a79f00e2a79f00d3a79f0082
:1038a0000002be000203be000c0078008e0078000b
:1038b0005fa99700cfa99700a6f407000802be00f1
:1038c0000a03be00a3f407000205be000004be0008
:1038d0003407270035e02200a698210037ba2300dc
:1038e0000fa897009fa897002fa99700bfa997003e
:1038f00098f507000802be000a03be0095f4070011
:1039000080bf9f00010578008204780003047800de
:103910000002be000203be006fa89700ffa0970040
:103920006fa19700dfa197008af40700441ade0018
:10393000fc7f200004026600bfa2970004825200b0
:1039400015032000850f52001b003c00809ebe0026
:103950008296be006fae97007fa797006fa1970079
:10396000d2af9f00dfa59700cbaf9f001d0278006c
:103970009d0290002d039000bd0390000c00780084
:103980008e0078005fa99700cfa9970071f4070017
:103990000fba97008a02780009037800880378003c
:1039a0006cf40700c0069800d1069800e206980063
:1039b000f306980052fe37000400200005e02200c4
:1039c000a698210037ba23000fa897009fa8970058
:1039d0002fa99700bfa997005ef507000205be005a
:1039e0000004be000203be000002be006fa89700e4
:1039f000ffa097006fa19700dfa1970055f4070083
:103a00000006780001077800d2af9f00c3af9f0087
:103a10000002be000203be006fa89700ffa097003f
:103a20006fa19700dfa197004af407000802be00cb
:103a30000a03be0047f407000205be000004be00f2
:103a4000149c240005522200a6392800b7972300b1
:103a50000fa897009fa897002fa99700bfa99700cc
:103a60003cf507000802be000a03be0039f4070057
:103a700080bf9f000105780082047800030478006d
:103a80000002be000203be000c0078008e00780029
:103a90005fa99700cfa997002ef4070067ff3700b2
:103aa000f0ff2f00f1fe27006fa99700ffa99700f4
:103ab000800f5100818f59000d0036000802be00b2
:103ac0000a03be000800be000a01be0021f4070080
:103ad000c0069800d1069800e2069800f306980008
:103ae000809ebe008296be000000eb0003fe370001
:103af0000800be000a01be00e70007000205be0084
:103b00000004be0034882c0095dc260006f3250056
:103b100047fe23000ff507006022b80006002000d2
:103b200007fe230011f40700e400070000077800f7
:103b300014fa070034882c0095dc260006f32500d3
:103b400047fe230054f407000203be000002be003b
:103b50000800be000a01be00fef30700809ebe0002
:103b60008296be006000b8006011b800c0069800e0
:103b7000d1069800e2069800f30698008eb79f00e1
:103b80000c00e0000b0032006000b80002002000d2
:103b900003002800809ebe008296be00c0069800ea
:103ba000d1069800e2069800f30698000e00ea009d
:103bb000d2fd37006000b8006011b800809ebe00e2
:103bc0008296be0077ff37002800fa00889fbe006b
:103bd0008a9fbe00c0b79f00d1b79f00e2b79f0089
:103be000f3b79f00c4af9f00d5af9f00e6af9f0023
:103bf000f7af9f000203be000002be00d5f407002d
:103c00000205be000004be000203be000002be00aa
:103c1000d0f407000802be000a03be00cdf407007e
:103c200080bf9f0091bf9f00a2bf9f00b3bf9f00b6
:103c3000c4572d00f5ac2500a6932d0057de2300b8
:103c40000800be000a01be00c2f40700b4ce29007d
:103c5000b5a22800665e2e00a7e52300bdf307008d
:103c60000203be000002be000fb897009fb8970085
:103c70002fb99700bfb99700b6f4070080bf9f0027
:103c800091bf9f00a2bf9f00b3bf9f00d4e72f004a
:103c9000157b250036de210077ec23000800be00ee
:103ca0000a01be00abf40700541d2600159c21003c
:103cb000061a2000a7f22300a6f307000802be00a0
:103cc0000a03be00a3f40700648a2f000511210037
:103cd0001611210017f82300a4f307000203be0009
:103ce0000002be000fb897009fb897002fb9970049
:103cf000bfb997009df3070080af9f0091af9f0071
:103d0000a2af9f00b3af9f000802be000a03be002f
:103d10004fb09700dfb097006fb19700ffb19700e9
:103d20008cf4070080bf9f0091bf9f00a2bf9f003f
:103d3000b3bf9f004fa097000000e0001a003a00b8
:103d40000faa97009faa97002fab9700bfab9700d1
:103d50000800be000a01be007ef40700945425004e
:103d6000555525005655250057fc230079f30700cb
:103d70000fba97009fba97002fbb9700bfbb970061
:103d800074f407004fb29700dfb297006fb397004b
:103d9000ffb3970075f307004f05be004f04be0048
:103da0000080fa00000006006022b8000600200033
:103db00007fe23004fa89700dfa897006fa9970080
:103dc000ffa9970063f4070080b79f0091b79f0099
:103dd000a2b79f00b3b79f000fba97009fba970092
:103de0002fbb9700bfbb97000fa897009fa8970015
:103df0002fa99700bfa9970056f407000203be0041
:103e00000002be000fb097009fb097002fb197003f
:103e1000bfb197004ff307000802be000a03be00bf
:103e20004cf407004faa9700dfaa97006fab9700ea
:103e3000ffab970047f307000205be000004be0079
:103e400094542500555525005655250057fc2b0048
:103e50000fb897009fb897002fb99700bfb9970088
:103e60003cf407000203be000002be000800be00d2
:103e70000a01be0037f307000203be000002be00c5
:103e80004fb09700dfb097006fb19700ffb1970078
:103e900030f30700c0ff3700f4ff2f00f5ff2f00bd
:103ea000f6ff2f00f7ff270000006200818062000c
:103eb0000201630083816300000006001400fa0021
:103ec000889fbe008a9fbe008c9fbe000004be007b
:103ed0000205be00680047000a90be000890be00c0
:103ee000cdf807000070a7000bf0a1009e0990001c
:103ef0000e099000fe0090006e0090009e0290005f
:103f000034432000848252000a00320010003c003a
:103f1000b4fc2f000428e1001f0034008301d1000d
:103f20000281d3008180d3000080d3008502e800a5
:103f3000faff3a000b00e000f2f83b0060001000ce
:103f4000e080180060011900e0811900edf83700e9
:103f5000b40020000428e10007003d0000004000fc
:103f60008180480002014900838149008502e900ff
:103f7000faff3a00efff3700f3ff2700f2ff2f00b0
:103f80006110b9000b00e000def83b0003002800e0
:103f900002002000010037006011b8006000b80086
:103fa000d8f837001400fa00889fbe008a9fbe0030
:103fb0008c9fbe000004be000205be0068004700e2
:103fc0000a90be000890be0093f807000070a7009a
:103fd0000bf0a100304320009e029000808252002e
:103fe000b0fe2f000028e10011003d00b0fc2f00c2
:103ff0000028e100150034001e0990008e08900092
:104000007e0090000501b0000201d1008180d30044
:104010000080d3008502e800fbff3a000b00e000bf
:10402000b8f83b0060001000e0801800b5f83700d9
:10403000f0ff2f00f1ff27000b00e000b1f83b007c
:104040000100280000002000aef837006000b80032
:04405000acf8370091
:020000040000fa
:104054000a00fa00608580007185800030f2070054
:1040640000407800004f78006085800071858000f2
:104074002bf207004880de000040780010479800cb
:10408400008580001185800025f20700004078003b
:1040940020479800008580001185800020f20700e9
:1040a4004880de000040780030479800e0848000bb
:1040b400f18480001af2070000407800404798001d
:1040c400e0848000f184800015f207004880de005f
:1040d400004078005047980020858000318580009a
:1040e4000ff20700004078006047980020858000a8
:1040f400318580000af207004880de000040780025
:1041040070479800408580005185800004f20700c4
:1041140000407800004f9800408580005185800061
:10412400fff107004880de0000407800104f98003f
:104134000e017800a1002000000320001f000700ea
:10414400000000000080fa00000006000600fa00eb
:10415400a07380004300de0061406000004f7800df
:10416400207080004900de00614060001047980024
:104174002070800000407800614060002047980073
:10418400a07480004f00de000040780030479800a3
:10419400207080004a00de006140600040479800c3
:1041a4000e017800510020000002200003000700e7
:1041b400000000000080fa00000006001000fa0071
:1041c400889fbe0050079800610798007207980006
:1041d4000f0478000f007800800478006c0047001a
:1041e40061002000108040008000e9002107980051
:1041f4000000e8000000d100800040000f007800bb
:104204008187470060004000300798000000eb0001
:10421400100798009e0090000e80e8000108e80056
:1042240010017800120798003e0090000100400041
:10423400e1cfb300014878005e009000c880de0042
:104244001e0190000e80e8000208e800900178004a
:1042540013079800814078003e009000020040005f
:10426400014878009e0090000e80e8000108e800f4
:1042740010017800120798005e0090000041780059
:104284003e00900001004000024878006e0090005b
:10429400c880de001e0190000e80e8000208e800dd
:1042a4009001780013079800814078003e00900048
:1042b40002004000014878009e0090000e80e80053
:1042c4000108e80010017800120798006e009000c1
:1042d400004178003e009000010040000248780050
:1042e4000000eb00000f78000d0037001e0078007e
:1042f400ee004700910040001e0190000e80e8008f
:104304000208e800900178001307980091407800b3
:104314003e00900002004000014878001e0fe800b3
:104324006e0090009e007800808f5000efff3500f3
:104334007e019000ee0090005e00900013000700e4
:10434400004f98009e0090000e80e8000108e800ed
:1043540010017800120798000e4990003e0090006a
:1043640001004000024878003e0090009e0090004a
:10437400aa0a07008907780000000000880778006f
:104384004f04be000080fa00000006000a00fa0094
:104394002007980031079800420798000040eb007e
:1043a400004f78009e407800e0cfb30000c0680062
:1043b400004f78002e0090004880de008040780096
:1043c4001e40780000c06800004f78002e00900066
:1043d400804078001e40780000c06800004f7800dc
:1043e4003e0090004880de00804078001e40780047
:1043f40000c06800004f78003e00900080407800c4
:104404001e40780000c06800004f78000000eb00f8
:10441400100798000c0037001e009000e8004700c9
:1044240011004000104078009e40780000c06800f1
:10443400004f78000e80e8008e80e8001108e80044
:1044440090007800110798009e0090003e009000b4
:10445400808f5000f0ff35001e4078000080fa0085
:10446400000006000400fa00204798003080800015
:10447400e30f500023003200e30f500005003e001c
:10448400e10f500010003200e10f500015003e0013
:1044940007003700e50f500036003200e50f5000ea
:1044a4001f003900e60f5000400032005000370072
:1044b4002e409000e24f40004f003a0010002000d0
:1044c400308088004c0037000e80e8001080fb002c
:1044d4004800dd0000808800200020003080880033
:1044e400480037000e80e8001080fb000180800047
:1044f4000080700000808800300020003080880038
:10450400400037000e80e8001080fb004800dd000a
:104514001080880040002000308088003900370077
:104524000e80e8001080fb00118080000080700085
:10453400108088001180800000082000808f5000c7
:10454400020034000630ef002e0037001080800097
:104554000000e000040034000430ef0050002000ac
:1045640030808800270037006000200030808800f9
:1045740024003700218080000100e80020808800aa
:104584004039210001004000ae409000014878000d
:104594002180800010808000808f5000180035003a
:1045a400600020003080880015003700ae40900085
:1045b400014f780011808000008080004239210082
:1045c40072ff0700104798001e4090009e4078003c
:1045d40080cf500004003a001180800000808000e9
:1045e400423921000a0007000630ef0005003700b9
:1045f4000630ef0003003700000000000100370020
:1046040000000000000000000080fa000000060026
:104614004800fa00889fbe008a9fbe0010079800d9
:1046240021079800320798009e00900000042000a3
:10463400808f50006f0132009e0090000004200023
:10464400808f500009003c009e0090000002200072
:10465400808f50000e0032009e0090000003200066
:10466400808f500065013200670137009e00900082
:1046740010092000808f5000520032009e009000ec
:1046840020092000808f5000d40032005e013700e2
:104694003e009000104078000080fb00000f78007e
:1046a4001e0078000000e0000c003a00660047009d
:1046b4001000e80010407800614060000080fb00ba
:1046c400610060004300dd00a17380000130a1009f
:1046d40001007000a07388004a0137001e007800b2
:1046e400e10f50000c003a00660047001000e8009b
:1046f40010407800614060000080fb0061006000b1
:104704004900dd00217080000190a10001007000cb
:10471400207088003b0137001e007800e20f500033
:104724000b003a00660047001000e80010407800d3
:10473400614060000080fb00610060002170800027
:104744000100a10001007000207088002d013700d5
:104754001e007800e30f50000b003a00660047008b
:104764001000e80010407800614060000080fb0009
:104774004f00dd00a174800001f0a1000100700071
:10478400a07488001f0137001e007800e40f500059
:104794001c013a00660047001000e8001040780051
:1047a400614060000080fb00610060004a00dd00a1
:1047b4002170800001a0a100010070002070880019
:1047c400100137008000eb003e0090003b0807001a
:1047d4004080880051808800410020003e00900005
:1047e40036080700608088007180880081002000fe
:1047f4003e00900031080700808088009180880086
:10480400c10020003e0090002c080700c0808800f2
:10481400d1808800010120003e0090002708070095
:10482400e0808800f1808800410120003e00900073
:1048340022080700008188001181880040808000e0
:10484400518080000001be008000eb00c00d2100fb
:104854004508070060808000718080000001be0070
:1048640041002000c00d21003f0807008080800027
:10487400918080000001be0081002000c00d210055
:1048840039080700c0808000d18080000001be008c
:10489400c1002000c00d210033080700e080800023
:1048a400f18080000001be0001012000c00d210044
:1048b4002d08070000818000118180000001be00e6
:1048c40041012000c00d210027080700c08080009e
:1048d400d1808000efef070040079800510798004f
:1048e4006207980073079800c0808000d180800020
:1048f400e8ef0700000f9800110f9800220f9800ae
:10490400330f9800c0808000d1808000e1ef070061
:10491400400f9800510f9800620f9800730f980091
:104924006080800071808000daef07000017980033
:104934001117980022179800331798008080800080
:1049440091808000d3ef07000205be000004be0082
:104954004080800051808000ceef07000203be003b
:104964000002be004e009000de0090006e01900038
:10497400fe019000809fbe00829fbe000e08900042
:104984009e0890002e099000be099000809fbe00f2
:10499400829fbe004e089000de0890006e099000d1
:1049a400fe099000809fbe00829fbe000e10900002
:1049b4009e1090002e119000be119000809fbe00aa
:1049c400829fbe00889fbe008a9fbe0040112100c6
:1049d400620a07008f02b1008b0037008000eb00f1
:1049e4003e009000b50707002081880031818800cf
:1049f400410020003e009000b0070700408188007d
:104a040051818800810020003e009000ab07070020
:104a14006081880071818800c10020003e00900000
:104a2400a6070700a0818800b18188000101200049
:104a34003e009000a1070700c0818800d181880052
:104a4400410120003e0090009c070700e08188009f
:104a5400f181880020818000318180000001be0046
:104a64008000eb00400f2100bf0707004081800059
:104a7400518180000001be0041002000400f210050
:104a8400b907070060818000718180000001be00c9
:104a940081002000400f2100b3070700a08180009f
:104aa400b18180000001be00c1002000400f210040
:104ab400ad070700c0818000d18180000001be00e5
:104ac40001012000400f2100a7070700e0818000ba
:104ad400f18180000001be0041012000400f21004f
:104ae400a1070700e0818000f181800069ef0700e1
:104af4004017980051179800621798007317980090
:104b0400c0818000d181800062ef0700001f9800ff
:104b1400111f9800221f9800331f9800a081800065
:104b2400b18180005bef0700401f9800511f98007f
:104b3400621f9800731f980040818000518180009b
:104b440054ef0700002798001127980022279800a7
:104b54003327980060818000718180004def070049
:104b64000205be000004be00208180003181800067
:104b740048ef07000203be000002be004e10900082
:104b8400de1090006e119000fe119000809fbe0018
:104b9400829fbe000e1890009e1890002e1990005f
:104ba400be199000809fbe00829fbe004e189000e8
:104bb400de1890006e199000fe199000809fbe00d0
:104bc400829fbe000e2090009e2090002e21900017
:104bd400be219000809fbe00829fbe00889fbe00c1
:104be4008a9fbe0040172100dc0907008f02b10034
:104bf400050037000000000003003700000000003b
:104c04000100370000000000000000004f05be0056
:104c14004f04be000080fa00000006000000fa0005
:104c2400c301a800dca1ef00dea1ef00c1e1a800f0
:104c3400000000000080fa00000006000000fa00f6
:104c4400c305a800dca5ef00dea5ef00c1e5a800c0
:104c5400000000000080fa00000006000800fa00ce
:104c6400889fbe008a9fbe0020828000318280001f
:104c74000082880011828800608280007182800036
:104c84004082880051828800300e80008000eb0052
:104c9400008fbe00500e80008000eb00c000dd00dd
:104ca400000020001e0f40005e974800302e800058
:104cb4008000eb002007980031079800502e8000f8
:104cc4008000eb00c000dd0000002000640147000c
:104cd400e401470033194000239148001202780090
:104ce4009202900024079800350798001e0078006f
:104cf4009e00900051ef0700c46e2600b55e2800a8
:104d040076ca2f0007ef230091f007000002780015
:104d1400020078000301780084037800010378001e
:104d2400800278000202780007007800860078008c
:104d340005017800840178000000be000201be0075
:104d440058ef070020828800318288002e009000ee
:104d5400be00900039ef0700c46e2600b55e28003f
:104d640076ca2f0007ef2b0079f0070000027800c5
:104d740002007800030178008403780001037800be
:104d8400800278000202780007007800860078002c
:104d940005017800840178000000be000201be0015
:104da40040ef0700608288007182880024828000be
:104db4003582800000828000118280000001be00e4
:104dc4000400be0083f107000001780001007800b0
:104dd40082017800000178000300780082007800e6
:104de40080828800918288006482800075828000bd
:104df40040828000518280000001be000400be0099
:104e040074f1070000017800010078008201780045
:104e1400000178000300780082007800a0828800f6
:104e2400b18288008082800091828000020020008c
:104e3400a337240034f307008001780001017800cf
:104e440003007800820078000000be00808588009e
:104e540091858800a0828000b18280000200200039
:104e6400a337240028f307008001780001017800ab
:104e740003007800820078000000be00a08588004e
:104e8400b18588008485800095858000a085800098
:104e9400b18580000001be000400be0056f1070089
:104ea4000001780001007800820278000002780096
:104eb400020020000300240005007800840078002c
:104ec4000000be0031f20700800178000101780083
:104ed40003007800820078000000be00c0858800ce
:104ee400d18588008485800095858000a085800018
:104ef400b18580000001be000400be0035f107004a
:104f04000001780001007800820178000001780037
:104f140003007800820078000000be005dee070008
:104f2400d4222b00d5f92e00766a2c00b7fc23007e
:104f340058ef0700000278000200780003017800af
:104f4400840378000103780080027800020278006c
:104f54000700780086007800050178008401780055
:104f64000000be000201be00ceee0700e08588000e
:104f7400f1858800c0858000d185800045ee07005a
:104f84000205be000004be00a0868000b186800039
:104f940040ee0700cdf507000203be000002be008c
:104fa4000800be000a01be00e9ef07000002780015
:104fb4000200780003017800840578000105780078
:104fc40080047800020478006022b80006002400ff
:104fd400f70624000b0078008a00780009017800a5
:104fe400880178000000be000201be0029ef07001e
:104ff400000278000200780003017800840578003c
:10500400010578008004780002047800408680005e
:10501400518680001fee07000203be000002be009e
:105024000b0078008a007800090178008801780074
:105034000000be000201be00cbee070000027800b3
:1050440002007800030178008403780001037800eb
:105054008002780002027800070078008600780059
:1050640005017800840178000000be000201be0042
:105074008cee07004086880051868800c085800039
:10508400d185800003ee07000205be000004be00c7
:10509400a0868000b1868000feed07003ff7070080
:1050a4000203be000002be000800be000a01be00ea
:1050b400a7ef0700000278000200780003017800df
:1050c40084057800010578008004780002047800e3
:1050d4006022b80006002400f70624000b007800c4
:1050e4008a00780009017800880178000000be0079
:1050f4000201be00e7ee070000027800020078001b
:1051040003017800840578000105780080047800a4
:10511400020478006086800071868000dded07005f
:105124000203be000002be000b0078008a00780073
:1051340009017800880178000000be000201be0069
:1051440089ee07000002780002007800030178006d
:10515400840378000103780080027800020278005a
:105164000700780086007800050178008401780043
:105174000000be000201be004aee070060868800ff
:1051840071868800e0858000f1858000020020009f
:10519400a33724007df107000001780001007800a6
:1051a4008202780000027800a0868000b186800028
:1051b4000001be0005007800840078000000be00f5
:1051c4008df0070080017800010178000300780069
:1051d400820078000000be00a0868800b1868800a6
:1051e400a0868000b1868000aaed070084d1220049
:1051f40045442500b61f220097002400a0ed0700b7
:105204000000e00018003400a0868000b186800011
:10521400a0ed070084d1220045442500b61f2200da
:10522400970124004aee070000027800020078008b
:105234000301780084037800010378008002780079
:1052440002027800070078008600780005017800e3
:10525400840178000000be000201be0011ee0700c8
:10526400a0868800b1868800a0868000b186800070
:1052740088ed070084d1220045442500b61f220092
:1052840097002c0079ed07000000e00001003500d4
:1052940018003700a0868000b18680007ded0700ed
:1052a40084d1220045442500b61f22009701240022
:1052b4002dee070000027800020078000301780058
:1052c40084037800010378008002780002027800e9
:1052d40007007800860078000501780084017800d2
:1052e4000000be000201be00eeed0700a0868800ab
:1052f400b1868800000000004f05be004f04be00c8
:105304000080fa00000006002400fa007083800088
:105314008183800000017800810178008000eb0027
:105324000e007800ad05070040868000518680009d
:105334000001be00410020000e0078008a0507002d
:1053440060868000718680000001be00810020001c
:105354000e00780084050700a0868000b1868000d6
:105364000001be00c10020000e0078007e05070089
:10537400c0858000d18580000001be0001012000ad
:105384000e00780078050700e0858000f185800034
:105394000001be00410120000e00780072050700e4
:1053a400c0868000d18680000001be0081012000fb
:1053b4000e0078006c0507008085800091858000d0
:1053c4000001be00c10120000e0078006605070040
:1053d400a0858000b18580000001be00010220008c
:1053e4000e007800600507000e01780041022000dd
:1053f4001006200071fb0700000000000080fa0086
:10540400000006000600fa00889fbe008a9fbe00c6
:1054140030070700e14f500069013a0031070700e7
:1054240028070700000f78001e007800100078009d
:105434008000eb0084ed070016ed0700646626008b
:105444006566260066662600a7002400c0ee0700f5
:1054540000027800020078000301780084057800d7
:105464000105780080047800020478006022b80006
:1054740006002000070b24000b0078008a00780047
:1054840009017800880178000000be000201be0016
:1054940000ee0700000278000200780003017800a3
:1054a4008403780001037800800278000202780007
:1054b40007007800860078000501780084017800f0
:1054c4000000be000201be0076ed07001007980040
:1054d40021079800f8838000098480001e01900051
:1054e400ae0190000000200081202400a7f00700f6
:1054f4000001780001007800820278000002780040
:1055040002002000030a24000500780084007800cb
:105514000000be00afef0700000178000100780032
:1055240082027800000278000801be0005007800bd
:10553400840078000000be009105070060858800a3
:10554400718588001e80e800100078008000eb0060
:105554003ded0700cfec0700646626006566260073
:1055640066662600a700240079ee07000002780092
:1055740002007800030178008405780001057800b2
:1055840080047800020478006022b800060020003d
:10559400070b24000b0078008a00780009017800ca
:1055a400880178000000be000201be00b9ed0700ca
:1055b4000002780002007800030178008403780078
:1055c4000103780080027800020278000700780066
:1055d4008600780005017800840178000000be0090
:1055e4000201be002fed0700100798002107980064
:1055f400f8838000098480001e019000ae019000b1
:10560400000020008120240060f0070000017800e1
:105614000100780082027800000278000200200075
:10562400030a240005007800840078000000be000e
:1056340068ef07000001780001007800820278001a
:10564400000278000801be0005007800840078009c
:105654000000be004a050700008588001185880007
:10566400410020001e804000100078008000eb0004
:10567400f5ec070087ec07006466260065662600e3
:1056840066662600a700240031ee070000027800b9
:105694000200780003017800840578000105780091
:1056a40080047800020478006022b800060020001c
:1056b400070b24000b0078008a00780009017800a9
:1056c400880178000000be000201be0071ed0700f1
:1056d4000002780002007800030178008403780057
:1056e4000103780080027800020278000700780045
:1056f4008600780005017800840178000000be006f
